{
  "abi": [
    {
      "type": "constructor",
      "inputs": [
        {
          "name": "_escrowContract",
          "type": "address",
          "internalType": "address payable"
        }
      ],
      "stateMutability": "nonpayable"
    },
    {
      "type": "function",
      "name": "buyerOrders",
      "inputs": [
        {
          "name": "",
          "type": "address",
          "internalType": "address"
        },
        {
          "name": "",
          "type": "uint256",
          "internalType": "uint256"
        }
      ],
      "outputs": [
        {
          "name": "",
          "type": "uint256",
          "internalType": "uint256"
        }
      ],
      "stateMutability": "view"
    },
    {
      "type": "function",
      "name": "cancelOrder",
      "inputs": [
        {
          "name": "_orderId",
          "type": "uint256",
          "internalType": "uint256"
        }
      ],
      "outputs": [],
      "stateMutability": "nonpayable"
    },
    {
      "type": "function",
      "name": "confirmOrder",
      "inputs": [
        {
          "name": "_orderId",
          "type": "uint256",
          "internalType": "uint256"
        }
      ],
      "outputs": [],
      "stateMutability": "nonpayable"
    },
    {
      "type": "function",
      "name": "createOrder",
      "inputs": [
        {
          "name": "_productId",
          "type": "uint256",
          "internalType": "uint256"
        },
        {
          "name": "_quantity",
          "type": "uint256",
          "internalType": "uint256"
        },
        {
          "name": "_shippingAddress",
          "type": "string",
          "internalType": "string"
        }
      ],
      "outputs": [
        {
          "name": "orderId",
          "type": "uint256",
          "internalType": "uint256"
        },
        {
          "name": "escrowId",
          "type": "uint256",
          "internalType": "uint256"
        }
      ],
      "stateMutability": "payable"
    },
    {
      "type": "function",
      "name": "createProduct",
      "inputs": [
        {
          "name": "_name",
          "type": "string",
          "internalType": "string"
        },
        {
          "name": "_description",
          "type": "string",
          "internalType": "string"
        },
        {
          "name": "_price",
          "type": "uint256",
          "internalType": "uint256"
        },
        {
          "name": "_stock",
          "type": "uint256",
          "internalType": "uint256"
        },
        {
          "name": "_ipfsHash",
          "type": "string",
          "internalType": "string"
        }
      ],
      "outputs": [
        {
          "name": "",
          "type": "uint256",
          "internalType": "uint256"
        }
      ],
      "stateMutability": "nonpayable"
    },
    {
      "type": "function",
      "name": "escrowContract",
      "inputs": [],
      "outputs": [
        {
          "name": "",
          "type": "address",
          "internalType": "contract Escrow"
        }
      ],
      "stateMutability": "view"
    },
    {
      "type": "function",
      "name": "getBuyerOrders",
      "inputs": [
        {
          "name": "_buyer",
          "type": "address",
          "internalType": "address"
        }
      ],
      "outputs": [
        {
          "name": "",
          "type": "uint256[]",
          "internalType": "uint256[]"
        }
      ],
      "stateMutability": "view"
    },
    {
      "type": "function",
      "name": "getOrderCount",
      "inputs": [],
      "outputs": [
        {
          "name": "",
          "type": "uint256",
          "internalType": "uint256"
        }
      ],
      "stateMutability": "view"
    },
    {
      "type": "function",
      "name": "getProductCount",
      "inputs": [],
      "outputs": [
        {
          "name": "",
          "type": "uint256",
          "internalType": "uint256"
        }
      ],
      "stateMutability": "view"
    },
    {
      "type": "function",
      "name": "getProducts",
      "inputs": [
        {
          "name": "_productIds",
          "type": "uint256[]",
          "internalType": "uint256[]"
        }
      ],
      "outputs": [
        {
          "name": "",
          "type": "tuple[]",
          "internalType": "struct Marketplace.Product[]",
          "components": [
            {
              "name": "id",
              "type": "uint256",
              "internalType": "uint256"
            },
            {
              "name": "seller",
              "type": "address",
              "internalType": "address"
            },
            {
              "name": "name",
              "type": "string",
              "internalType": "string"
            },
            {
              "name": "description",
              "type": "string",
              "internalType": "string"
            },
            {
              "name": "price",
              "type": "uint256",
              "internalType": "uint256"
            },
            {
              "name": "stock",
              "type": "uint256",
              "internalType": "uint256"
            },
            {
              "name": "ipfsHash",
              "type": "string",
              "internalType": "string"
            },
            {
              "name": "isActive",
              "type": "bool",
              "internalType": "bool"
            },
            {
              "name": "createdAt",
              "type": "uint256",
              "internalType": "uint256"
            }
          ]
        }
      ],
      "stateMutability": "view"
    },
    {
      "type": "function",
      "name": "getSellerOrders",
      "inputs": [
        {
          "name": "_seller",
          "type": "address",
          "internalType": "address"
        }
      ],
      "outputs": [
        {
          "name": "",
          "type": "uint256[]",
          "internalType": "uint256[]"
        }
      ],
      "stateMutability": "view"
    },
    {
      "type": "function",
      "name": "getSellerProducts",
      "inputs": [
        {
          "name": "_seller",
          "type": "address",
          "internalType": "address"
        }
      ],
      "outputs": [
        {
          "name": "",
          "type": "uint256[]",
          "internalType": "uint256[]"
        }
      ],
      "stateMutability": "view"
    },
    {
      "type": "function",
      "name": "isSeller",
      "inputs": [
        {
          "name": "_addr",
          "type": "address",
          "internalType": "address"
        }
      ],
      "outputs": [
        {
          "name": "",
          "type": "bool",
          "internalType": "bool"
        }
      ],
      "stateMutability": "view"
    },
    {
      "type": "function",
      "name": "orderCounter",
      "inputs": [],
      "outputs": [
        {
          "name": "",
          "type": "uint256",
          "internalType": "uint256"
        }
      ],
      "stateMutability": "view"
    },
    {
      "type": "function",
      "name": "orders",
      "inputs": [
        {
          "name": "",
          "type": "uint256",
          "internalType": "uint256"
        }
      ],
      "outputs": [
        {
          "name": "id",
          "type": "uint256",
          "internalType": "uint256"
        },
        {
          "name": "productId",
          "type": "uint256",
          "internalType": "uint256"
        },
        {
          "name": "buyer",
          "type": "address",
          "internalType": "address"
        },
        {
          "name": "seller",
          "type": "address",
          "internalType": "address"
        },
        {
          "name": "quantity",
          "type": "uint256",
          "internalType": "uint256"
        },
        {
          "name": "totalAmount",
          "type": "uint256",
          "internalType": "uint256"
        },
        {
          "name": "shippingAddress",
          "type": "string",
          "internalType": "string"
        },
        {
          "name": "status",
          "type": "uint8",
          "internalType": "enum Marketplace.OrderStatus"
        },
        {
          "name": "createdAt",
          "type": "uint256",
          "internalType": "uint256"
        },
        {
          "name": "escrowId",
          "type": "uint256",
          "internalType": "uint256"
        }
      ],
      "stateMutability": "view"
    },
    {
      "type": "function",
      "name": "owner",
      "inputs": [],
      "outputs": [
        {
          "name": "",
          "type": "address",
          "internalType": "address"
        }
      ],
      "stateMutability": "view"
    },
    {
      "type": "function",
      "name": "productCounter",
      "inputs": [],
      "outputs": [
        {
          "name": "",
          "type": "uint256",
          "internalType": "uint256"
        }
      ],
      "stateMutability": "view"
    },
    {
      "type": "function",
      "name": "products",
      "inputs": [
        {
          "name": "",
          "type": "uint256",
          "internalType": "uint256"
        }
      ],
      "outputs": [
        {
          "name": "id",
          "type": "uint256",
          "internalType": "uint256"
        },
        {
          "name": "seller",
          "type": "address",
          "internalType": "address"
        },
        {
          "name": "name",
          "type": "string",
          "internalType": "string"
        },
        {
          "name": "description",
          "type": "string",
          "internalType": "string"
        },
        {
          "name": "price",
          "type": "uint256",
          "internalType": "uint256"
        },
        {
          "name": "stock",
          "type": "uint256",
          "internalType": "uint256"
        },
        {
          "name": "ipfsHash",
          "type": "string",
          "internalType": "string"
        },
        {
          "name": "isActive",
          "type": "bool",
          "internalType": "bool"
        },
        {
          "name": "createdAt",
          "type": "uint256",
          "internalType": "uint256"
        }
      ],
      "stateMutability": "view"
    },
    {
      "type": "function",
      "name": "registerSeller",
      "inputs": [
        {
          "name": "_storeName",
          "type": "string",
          "internalType": "string"
        },
        {
          "name": "_description",
          "type": "string",
          "internalType": "string"
        }
      ],
      "outputs": [],
      "stateMutability": "nonpayable"
    },
    {
      "type": "function",
      "name": "removeProduct",
      "inputs": [
        {
          "name": "_productId",
          "type": "uint256",
          "internalType": "uint256"
        }
      ],
      "outputs": [],
      "stateMutability": "nonpayable"
    },
    {
      "type": "function",
      "name": "sellerOrders",
      "inputs": [
        {
          "name": "",
          "type": "address",
          "internalType": "address"
        },
        {
          "name": "",
          "type": "uint256",
          "internalType": "uint256"
        }
      ],
      "outputs": [
        {
          "name": "",
          "type": "uint256",
          "internalType": "uint256"
        }
      ],
      "stateMutability": "view"
    },
    {
      "type": "function",
      "name": "sellerProducts",
      "inputs": [
        {
          "name": "",
          "type": "address",
          "internalType": "address"
        },
        {
          "name": "",
          "type": "uint256",
          "internalType": "uint256"
        }
      ],
      "outputs": [
        {
          "name": "",
          "type": "uint256",
          "internalType": "uint256"
        }
      ],
      "stateMutability": "view"
    },
    {
      "type": "function",
      "name": "sellers",
      "inputs": [
        {
          "name": "",
          "type": "address",
          "internalType": "address"
        }
      ],
      "outputs": [
        {
          "name": "sellerAddress",
          "type": "address",
          "internalType": "address"
        },
        {
          "name": "storeName",
          "type": "string",
          "internalType": "string"
        },
        {
          "name": "description",
          "type": "string",
          "internalType": "string"
        },
        {
          "name": "isActive",
          "type": "bool",
          "internalType": "bool"
        },
        {
          "name": "registeredAt",
          "type": "uint256",
          "internalType": "uint256"
        }
      ],
      "stateMutability": "view"
    },
    {
      "type": "function",
      "name": "setEscrowContract",
      "inputs": [
        {
          "name": "_escrow",
          "type": "address",
          "internalType": "address payable"
        }
      ],
      "outputs": [],
      "stateMutability": "nonpayable"
    },
    {
      "type": "function",
      "name": "transferOwnership",
      "inputs": [
        {
          "name": "_newOwner",
          "type": "address",
          "internalType": "address"
        }
      ],
      "outputs": [],
      "stateMutability": "nonpayable"
    },
    {
      "type": "function",
      "name": "updateProduct",
      "inputs": [
        {
          "name": "_productId",
          "type": "uint256",
          "internalType": "uint256"
        },
        {
          "name": "_price",
          "type": "uint256",
          "internalType": "uint256"
        },
        {
          "name": "_stock",
          "type": "uint256",
          "internalType": "uint256"
        },
        {
          "name": "_isActive",
          "type": "bool",
          "internalType": "bool"
        }
      ],
      "outputs": [],
      "stateMutability": "nonpayable"
    },
    {
      "type": "event",
      "name": "OrderCreated",
      "inputs": [
        {
          "name": "orderId",
          "type": "uint256",
          "indexed": true,
          "internalType": "uint256"
        },
        {
          "name": "productId",
          "type": "uint256",
          "indexed": true,
          "internalType": "uint256"
        },
        {
          "name": "buyer",
          "type": "address",
          "indexed": true,
          "internalType": "address"
        },
        {
          "name": "seller",
          "type": "address",
          "indexed": false,
          "internalType": "address"
        },
        {
          "name": "totalAmount",
          "type": "uint256",
          "indexed": false,
          "internalType": "uint256"
        },
        {
          "name": "escrowId",
          "type": "uint256",
          "indexed": false,
          "internalType": "uint256"
        }
      ],
      "anonymous": false
    },
    {
      "type": "event",
      "name": "OrderStatusChanged",
      "inputs": [
        {
          "name": "orderId",
          "type": "uint256",
          "indexed": true,
          "internalType": "uint256"
        },
        {
          "name": "oldStatus",
          "type": "uint8",
          "indexed": false,
          "internalType": "enum Marketplace.OrderStatus"
        },
        {
          "name": "newStatus",
          "type": "uint8",
          "indexed": false,
          "internalType": "enum Marketplace.OrderStatus"
        }
      ],
      "anonymous": false
    },
    {
      "type": "event",
      "name": "ProductCreated",
      "inputs": [
        {
          "name": "productId",
          "type": "uint256",
          "indexed": true,
          "internalType": "uint256"
        },
        {
          "name": "seller",
          "type": "address",
          "indexed": true,
          "internalType": "address"
        },
        {
          "name": "name",
          "type": "string",
          "indexed": false,
          "internalType": "string"
        },
        {
          "name": "price",
          "type": "uint256",
          "indexed": false,
          "internalType": "uint256"
        }
      ],
      "anonymous": false
    },
    {
      "type": "event",
      "name": "ProductRemoved",
      "inputs": [
        {
          "name": "productId",
          "type": "uint256",
          "indexed": true,
          "internalType": "uint256"
        },
        {
          "name": "seller",
          "type": "address",
          "indexed": true,
          "internalType": "address"
        }
      ],
      "anonymous": false
    },
    {
      "type": "event",
      "name": "ProductUpdated",
      "inputs": [
        {
          "name": "productId",
          "type": "uint256",
          "indexed": true,
          "internalType": "uint256"
        },
        {
          "name": "newPrice",
          "type": "uint256",
          "indexed": false,
          "internalType": "uint256"
        },
        {
          "name": "newStock",
          "type": "uint256",
          "indexed": false,
          "internalType": "uint256"
        },
        {
          "name": "isActive",
          "type": "bool",
          "indexed": false,
          "internalType": "bool"
        }
      ],
      "anonymous": false
    },
    {
      "type": "event",
      "name": "SellerRegistered",
      "inputs": [
        {
          "name": "seller",
          "type": "address",
          "indexed": true,
          "internalType": "address"
        },
        {
          "name": "storeName",
          "type": "string",
          "indexed": false,
          "internalType": "string"
        },
        {
          "name": "registeredAt",
          "type": "uint256",
          "indexed": false,
          "internalType": "uint256"
        }
      ],
      "anonymous": false
    },
    {
      "type": "error",
      "name": "Marketplace__AlreadySeller",
      "inputs": []
    },
    {
      "type": "error",
      "name": "Marketplace__EscrowNotSet",
      "inputs": []
    },
    {
      "type": "error",
      "name": "Marketplace__InvalidIPFSHash",
      "inputs": []
    },
    {
      "type": "error",
      "name": "Marketplace__InvalidPrice",
      "inputs": []
    },
    {
      "type": "error",
      "name": "Marketplace__NotProductOwner",
      "inputs": []
    },
    {
      "type": "error",
      "name": "Marketplace__NotSeller",
      "inputs": []
    },
    {
      "type": "error",
      "name": "Marketplace__OrderNotFound",
      "inputs": []
    },
    {
      "type": "error",
      "name": "Marketplace__ProductNotActive",
      "inputs": []
    },
    {
      "type": "error",
      "name": "Marketplace__ProductNotFound",
      "inputs": []
    },
    {
      "type": "error",
      "name": "Marketplace__Unauthorized",
      "inputs": []
    }
  ],
  "bytecode": {
    "object": "0x608034607e57601f61207a38819003918201601f19168301916001600160401b03831184841017608257808492602094604052833981010312607e57516001600160a01b03811690819003607e57600280546001600160a01b0319908116331790915560038054909116919091179055604051611fe390816100978239f35b5f80fd5b634e487b7160e01b5f52604160045260245ffdfe6080806040526004361015610012575f80fd5b5f905f3560e01c9081631f16653b14611cb057508063217b635e14611a3e578063318fd93d146116825780634500cb601461163957806345cb4505146115f05780634a348da9146115d4578063514fcac7146114385780635ee95cae146113765780636061f75414610eb05780636d47ab7214610e125780637acc0b2014610d425780638ac7d79c14610bf75780638d0a5fbb14610a7b5780638da5cb5b14610bce578063a45f2ebc14610b5c578063a85c38ef14610a99578063b789bf5214610a7b578063c1302b3414610a24578063ccfcaea414610478578063e42a96e71461044f578063e4cbac40146103dd578063e6a93e161461035b578063ee95feaf14610318578063f2fde38b146102be578063f42375b5146102575763faaac3901461013c575f80fd5b3461025457608036600319011261025457600435602435604435606435908115159182810361025257338652600460205260ff60036040882001541615610243578486526005602052604086205415610234578486526005602052604086206001810154336001600160a01b03909116036102255784156102165791610202606094926007858860047f24833e9f5188ae0f7e72e30363b10145255676df1ab74b5137059e1b8e4cba669a980155846005820155019060ff801983541691151516179055565b60405192835260208301526040820152a280f35b6323de483d60e01b8752600487fd5b63d54e394960e01b8752600487fd5b63fa130d1560e01b8652600486fd5b637b6363af60e01b8652600486fd5b855b80fd5b5034610254576020366003190112610254576004356001600160a01b038116908190036102ba576002546001600160a01b031633036102ab576bffffffffffffffffffffffff60a01b600354161760035580f35b634aae4fe960e01b8252600482fd5b5080fd5b5034610254576020366003190112610254576102d8611d1a565b600254906001600160a01b0382163303610309576001600160a01b03166001600160a01b0319919091161760025580f35b634aae4fe960e01b8352600483fd5b50346102545760203660031901126102545760209060ff906003906040906001600160a01b03610346611d1a565b16815260048552200154166040519015158152f35b5034610254576020366003190112610254576001600160a01b0361037d611d1a565b168152600760205260408120604051918260208354918281520192825260208220915b8181106103c7576103c3856103b781870382611dad565b60405191829182611e6e565b0390f35b82548452602090930192600192830192016103a0565b5034610254576020366003190112610254576001600160a01b036103ff611d1a565b168152600960205260408120604051918260208354918281520192825260208220915b818110610439576103c3856103b781870382611dad565b8254845260209093019260019283019201610422565b50346102545780600319360112610254576003546040516001600160a01b039091168152602090f35b50346102545760a0366003190112610254576004356001600160401b0381116102ba576104a9903690600401611ced565b6024356001600160401b038111610a20576104c8903690600401611ced565b92906084356001600160401b038111610252576104e9903690600401611ced565b9094338752600460205260ff60036040892001541615610a115760443515610216578115610a025761057361051e8854611f52565b968789556040519361052f85611d91565b8885526105576020860196338852610548368b8b611edf565b95604088019687523691611edf565b6060860152604435608086015260643560a08601523691611edf565b60c0830152600160e083018190524261010084015286885260056020526040882083518155935190840180546001600160a01b0319166001600160a01b0392909216919091179055518051906001600160401b03821161092b5781906105dc6002860154611d59565b601f81116109b2575b50602090601f831160011461094a57899261093f575b50508160011b915f199060031b1c19161760028301555b60608101518051906001600160401b03821161092b5781906106376003860154611d59565b601f81116108d8575b50602090601f8311600114610870578992610865575b50508160011b915f199060031b1c19161760038301555b6080810151600483015560a081015160058301556006820160c08201518051906001600160401b038211610851576106a58354611d59565b601f811161080c575b50918893918896959360209a508a90601f83116001146107745794600861010061074c968b96866040978c977f5f25c590b5c7f62ed4186adca32d3118caef07e5020c6cc8268d4136df2cfef89e9c61075e9e92610769575b50508160011b915f199060031b1c19161790555b61073a60e08201511515600786019060ff801983541691151516179055565b015191015533815260078b5220611f74565b60405191829133966044359184611f24565b0390a3604051908152f35b015190505f80610707565b8387528187209190601f198416885b8181106107f2575061074c968b9660018761075e9c977f5f25c590b5c7f62ed4186adca32d3118caef07e5020c6cc8268d4136df2cfef89e9c9760089760409b61010098106107da575b505050811b01905561071b565b01515f1960f88460031b161c191690555f80806107cd565b8284015185558d9b50600190940193928e01928e01610783565b838a5260208a20601f840160051c81019160208510610847575b601f0160051c01905b81811061083c57506106ae565b8a815560010161082f565b9091508190610826565b634e487b7160e01b89526041600452602489fd5b015190505f80610656565b600386018a52818a209250601f1984168a5b8181106108c057509084600195949392106108a8575b505050811b01600383015561066d565b01515f1960f88460031b161c191690555f8080610898565b92936020600181928786015181550195019301610882565b90915060038501895260208920601f840160051c81019160208510610921575b90601f859493920160051c01905b8181106109135750610640565b8a8155849350600101610906565b90915081906108f8565b634e487b7160e01b88526041600452602488fd5b015190505f806105fb565b600286018a52818a209250601f1984168a5b81811061099a5750908460019594939210610982575b505050811b016002830155610612565b01515f1960f88460031b161c191690555f8080610972565b9293602060018192878601518155019501930161095c565b90915060028501895260208920601f840160051c8101602085106109fb575b90849392915b601f830160051c820181106109ed5750506105e5565b8b81558594506001016109d7565b50806109d1565b6375d3e5a160e01b8752600487fd5b637b6363af60e01b8752600487fd5b8380fd5b503461025457604036600319011261025457610a3e611d1a565b6001600160a01b0316815260076020526040812080546024359290831015610254576020610a6c8484611d30565b90549060031b1c604051908152f35b50346102545780600319360112610254576020600154604051908152f35b5034610254576020366003190112610254576040906004358152600660205220805460018201549160018060a01b0360028201541660018060a01b0360038301541691610b4c610b4160048301546005840154610af860068601611dce565b9160ff6007870154169760096008880154970154976040519b8c9b8c5260208c015260408b015260608a0152608089015260a088015261014060c0880152610140870190611cc9565b9360e0860190611ea7565b6101008401526101208301520390f35b5034610254576020366003190112610254576001600160a01b03610b7e611d1a565b168152600860205260408120604051918260208354918281520192825260208220915b818110610bb8576103c3856103b781870382611dad565b8254845260209093019260019283019201610ba1565b50346102545780600319360112610254576002546040516001600160a01b039091168152602090f35b5034610254576020366003190112610254576004358082526006602052604082205415610d335780825260066020526040822060028101546001600160a01b0316330361030957600781019060ff8254166006811015610d1f57600103610d105760035460099091015484916001600160a01b031690813b15610d015782916024839260405194859384926388685cd960e01b845260048401525af18015610d0557610cec575b5050805460ff198116600317909155604080517f2b594027304fbeb3d4d0f06c892ea27d2ef521db7646c9466c04a177cf0a6d3092610ce190829060ff16611ea7565b60036020820152a280f35b81610cf691611dad565b610d0157825f610c9e565b8280fd5b6040513d84823e3d90fd5b634aae4fe960e01b8452600484fd5b634e487b7160e01b85526021600452602485fd5b63c874921160e01b8252600482fd5b5034610254576020366003190112610254576004358152600560205260409020805460018201546001600160a01b031691610d7f60028201611dce565b610e00610d8e60038401611dce565b6004840154906005850154610de8610da860068801611dce565b92610dda600860ff60078b015416990154976040519b8c9b8c5260208c015261012060408c01526101208b0190611cc9565b9089820360608b0152611cc9565b92608088015260a087015285820360c0870152611cc9565b91151560e08401526101008301520390f35b5034610254576020366003190112610254576040906001600160a01b03610e37611d1a565b16815260046020522080546001600160a01b0316610e5760018301611dce565b91610e6460028201611dce565b610e9f600460ff60038501541693015491610e91604051968796875260a0602088015260a0870190611cc9565b908582036040870152611cc9565b911515606084015260808301520390f35b506060366003190112610254576044356001600160401b0381116102ba57610edc903690600401611ced565b90600435835260056020526040832054156113675760043583526005602052604083209060ff60078301541615611358576024356005830154106113495760018201546001600160a01b03169133831461133a576004810154918260243581020460243514831517156111ed576024358302340361132b57602060018060a01b036003541694606460405180978193630c36176560e41b83523360048401526024830152600435604483015234905af19384156113205786946112ec575b50610fa6600154611f52565b948560015560018060a01b036001840154166040519161014083018381106001600160401b038211176112d857604052878352602083019360043585526040840192338452606085019081526110126080860192602435845260a08701946024358b0286523691611edf565b60c08601908152600160e087018190524261010088015261012087018b90528b8d52600660205260408d208751815597519088015593516002870180546001600160a01b03199081166001600160a01b039384161790915591516003880180549093169116179055516004850155516005840155518051906001600160401b0382116108515781906110a76006860154611d59565b601f8111611288575b50602090601f8311600114611220578a92611215575b50508160011b915f199060031b1c19161760068301555b6007820160e0820151600681101561120157916101209160099360ff8019835416911617905561010081015160088501550151910155600581015460243581039081116111ed57604095859383889360057f2b594027304fbeb3d4d0f06c892ea27d2ef521db7646c9466c04a177cf0a6d30960155338352600860205261116686858520611f74565b60018101546001600160a01b031683526009602052838320611189908790611f74565b6001808060a01b039101541690835191825260243502602082015285838201523390857f3692c2e473686659b62de88a2ceb823a0585c86bf37d11ac339fcd06e497d5c8606060043593a4815190815260016020820152a282519182526020820152f35b634e487b7160e01b86526011600452602486fd5b634e487b7160e01b89526021600452602489fd5b015190505f806110c6565b600686018b52818b209250601f1984168b5b8181106112705750908460019594939210611258575b505050811b0160068301556110dd565b01515f1960f88460031b161c191690555f8080611248565b92936020600181928786015181550195019301611232565b909150600685018a5260208a20601f840160051c8101602085106112d1575b90849392915b601f830160051c820181106112c35750506110b0565b8c81558594506001016112ad565b50806112a7565b634e487b7160e01b8a52604160045260248afd5b9093506020813d602011611318575b8161130860209383611dad565b810103126102525751925f610f9a565b3d91506112fb565b6040513d88823e3d90fd5b6323de483d60e01b8652600486fd5b634aae4fe960e01b8552600485fd5b6323de483d60e01b8452600484fd5b63a9a11ee360e01b8452600484fd5b63fa130d1560e01b8352600483fd5b503461025457602036600319011261025457600435338252600460205260ff6003604084200154161561142957808252600560205260408220541561141a578082526005602052604082206001810154336001600160a01b039091160361140b57600701805460ff1916905533907f1a16e887b520404248e84d208f647fde3544d93252671bed9e10609da817059f8380a380f35b63d54e394960e01b8352600483fd5b63fa130d1560e01b8252600482fd5b637b6363af60e01b8252600482fd5b503461158757602036600319011261158757600435805f52600660205260405f2054156115c557805f52600660205260405f2060018060a01b03600282015416331415806115ae575b61158b57600781019060ff825416600681101561159a5760010361158b5760018060a01b03600354166009820154813b15611587575f9160248392604051948593849263278ecde160e01b845260048401525af1801561157c57611567575b506001810154845260056020526005600460408620920154910180549182018092116115535755805460ff198116600517909155604080517f2b594027304fbeb3d4d0f06c892ea27d2ef521db7646c9466c04a177cf0a6d309261154890829060ff16611ea7565b60056020820152a280f35b634e487b7160e01b85526011600452602485fd5b6115749194505f90611dad565b5f925f6114e0565b6040513d5f823e3d90fd5b5f80fd5b634aae4fe960e01b5f5260045ffd5b634e487b7160e01b5f52602160045260245ffd5b5060038101546001600160a01b0316331415611481565b63c874921160e01b5f5260045ffd5b34611587575f3660031901126115875760205f54604051908152f35b3461158757604036600319011261158757611609611d1a565b6001600160a01b03165f9081526009602052604090208054602435919082101561158757602091610a6c91611d30565b3461158757604036600319011261158757611652611d1a565b6001600160a01b03165f9081526008602052604090208054602435919082101561158757602091610a6c91611d30565b34611587576040366003190112611587576004356001600160401b038111611587576116b2903690600401611ced565b906024356001600160401b038111611587576116d2903690600401611ced565b335f52600460205260ff600360405f20015416611a2f576040519160a08301908382106001600160401b0383111761195d5761172891604052338452611719368787611edf565b92602085019384523691611edf565b60408381019182526001606085018181524260808701908152335f908152600460205293909320955186546001600160a01b0319166001600160a01b0391909116178655935180519294939291860191906001600160401b03821161195d5781906117938454611d59565b601f81116119df575b50602090601f831160011461197c575f92611971575b50508160011b915f199060031b1c19161790555b51805160028501916001600160401b03821161195d576117e68354611d59565b601f8111611918575b50602090601f83116001146118875793600493837f214abe42c5a68ae0efa0e66475eaea293d0e9399052fb6e5fa12f93f5a7ed106999794611863946118779a985f9261187c575b50508160011b915f199060031b1c19161790555b511515600385019060ff801983541691151516179055565b519101556040519182913395429184611f24565b0390a2005b015190508c80611837565b90601f19831691845f52815f20925f5b818110611900575084611863946118779a9894600498947f214abe42c5a68ae0efa0e66475eaea293d0e9399052fb6e5fa12f93f5a7ed1069d9b98600195106118e8575b505050811b01905561184b565b01515f1960f88460031b161c191690558c80806118db565b92936020600181928786015181550195019301611897565b835f5260205f20601f840160051c81019160208510611953575b601f0160051c01905b81811061194857506117ef565b5f815560010161193b565b9091508190611932565b634e487b7160e01b5f52604160045260245ffd5b0151905089806117b2565b5f8581528281209350601f198516905b8181106119c757509084600195949392106119af575b505050811b0190556117c6565b01515f1960f88460031b161c191690558980806119a2565b9293602060018192878601518155019501930161198c565b909150835f5260205f20601f840160051c81019160208510611a25575b90601f859493920160051c01905b818110611a17575061179c565b5f8155849350600101611a0a565b90915081906119fc565b63bf972c2b60e01b5f5260045ffd5b34611587576020366003190112611587576004356001600160401b03811161158757366023820112156115875780600401356001600160401b038111611587573660248260051b8401011161158757611a9681611eb4565b91611aa46040519384611dad565b818352601f19611ab383611eb4565b015f5b818110611c605750505f5b82811015611b7e5760019060248160051b840101355f52600560205260405f20600860405191611af083611d91565b80548352848060a01b0385820154166020840152611b1060028201611dce565b6040840152611b2160038201611dce565b606084015260048101546080840152600581015460a0840152611b4660068201611dce565b60c084015260ff600782015416151560e08401520154610100820152611b6c8287611ecb565b52611b778186611ecb565b5001611ac1565b836040518091602082016020835281518091526040830190602060408260051b8601019301915f905b828210611bb657505050500390f35b919360019193955060208091603f1989820301855287519081518152848060a01b0383830151168382015261010080611c3e611c18611c0660408701516101206040880152610120870190611cc9565b60608701518682036060880152611cc9565b6080860151608086015260a086015160a086015260c086015185820360c0870152611cc9565b9360e0810151151560e085015201519101529601920192018594939192611ba7565b602090604051611c6f81611d91565b5f81525f83820152606060408201526060808201525f60808201525f60a0820152606060c08201525f60e08201525f61010082015282828801015201611ab6565b34611587575f366003190112611587576020905f548152f35b805180835260209291819084018484015e5f828201840152601f01601f1916010190565b9181601f84011215611587578235916001600160401b038311611587576020838186019501011161158757565b600435906001600160a01b038216820361158757565b8054821015611d45575f5260205f2001905f90565b634e487b7160e01b5f52603260045260245ffd5b90600182811c92168015611d87575b6020831014611d7357565b634e487b7160e01b5f52602260045260245ffd5b91607f1691611d68565b61012081019081106001600160401b0382111761195d57604052565b90601f801991011681019081106001600160401b0382111761195d57604052565b9060405191825f825492611de184611d59565b8084529360018116908115611e4c5750600114611e08575b50611e0692500383611dad565b565b90505f9291925260205f20905f915b818310611e30575050906020611e06928201015f611df9565b6020919350806001915483858901015201910190918492611e17565b905060209250611e0694915060ff191682840152151560051b8201015f611df9565b60206040818301928281528451809452019201905f5b818110611e915750505090565b8251845260209384019390920191600101611e84565b90600682101561159a5752565b6001600160401b03811161195d5760051b60200190565b8051821015611d455760209160051b010190565b9291926001600160401b03821161195d5760405191611f08601f8201601f191660200184611dad565b829481845281830111611587578281602093845f960137010152565b9392918060609160209360408852816040890152838801375f828288010152601f8019910116850101930152565b5f198114611f605760010190565b634e487b7160e01b5f52601160045260245ffd5b80546801000000000000000081101561195d57611f9691600182018155611d30565b819291549060031b91821b915f19901b191617905556fea264697066735822122004b13ccbfe62fdf860c2e4fd9e662e296b4c0e67d1c99e57db4ddb2e9ee29bfa64736f6c634300081e0033",
    "linkReferences": {}
  },
  "methodIdentifiers": {
    "buyerOrders(address,uint256)": "4500cb60",
    "cancelOrder(uint256)": "514fcac7",
    "confirmOrder(uint256)": "8ac7d79c",
    "createOrder(uint256,uint256,string)": "6061f754",
    "createProduct(string,string,uint256,uint256,string)": "ccfcaea4",
    "escrowContract()": "e42a96e7",
    "getBuyerOrders(address)": "a45f2ebc",
    "getOrderCount()": "8d0a5fbb",
    "getProductCount()": "4a348da9",
    "getProducts(uint256[])": "217b635e",
    "getSellerOrders(address)": "e4cbac40",
    "getSellerProducts(address)": "e6a93e16",
    "isSeller(address)": "ee95feaf",
    "orderCounter()": "b789bf52",
    "orders(uint256)": "a85c38ef",
    "owner()": "8da5cb5b",
    "productCounter()": "1f16653b",
    "products(uint256)": "7acc0b20",
    "registerSeller(string,string)": "318fd93d",
    "removeProduct(uint256)": "5ee95cae",
    "sellerOrders(address,uint256)": "45cb4505",
    "sellerProducts(address,uint256)": "c1302b34",
    "sellers(address)": "6d47ab72",
    "setEscrowContract(address)": "f42375b5",
    "transferOwnership(address)": "f2fde38b",
    "updateProduct(uint256,uint256,uint256,bool)": "faaac390"
  },
  "id": 23
}