{
  "abi": [
    {
      "type": "constructor",
      "inputs": [],
      "stateMutability": "nonpayable"
    },
    {
      "type": "receive",
      "stateMutability": "payable"
    },
    {
      "type": "function",
      "name": "DISPUTE_WINDOW",
      "inputs": [],
      "outputs": [
        {
          "name": "",
          "type": "uint256",
          "internalType": "uint256"
        }
      ],
      "stateMutability": "view"
    },
    {
      "type": "function",
      "name": "buyerEscrows",
      "inputs": [
        {
          "name": "",
          "type": "address",
          "internalType": "address"
        },
        {
          "name": "",
          "type": "uint256",
          "internalType": "uint256"
        }
      ],
      "outputs": [
        {
          "name": "",
          "type": "uint256",
          "internalType": "uint256"
        }
      ],
      "stateMutability": "view"
    },
    {
      "type": "function",
      "name": "createEscrow",
      "inputs": [
        {
          "name": "_buyer",
          "type": "address",
          "internalType": "address"
        },
        {
          "name": "_seller",
          "type": "address",
          "internalType": "address"
        },
        {
          "name": "_productId",
          "type": "uint256",
          "internalType": "uint256"
        }
      ],
      "outputs": [
        {
          "name": "",
          "type": "uint256",
          "internalType": "uint256"
        }
      ],
      "stateMutability": "payable"
    },
    {
      "type": "function",
      "name": "emergencyWithdraw",
      "inputs": [
        {
          "name": "_to",
          "type": "address",
          "internalType": "address payable"
        },
        {
          "name": "_amount",
          "type": "uint256",
          "internalType": "uint256"
        }
      ],
      "outputs": [],
      "stateMutability": "nonpayable"
    },
    {
      "type": "function",
      "name": "escrowCounter",
      "inputs": [],
      "outputs": [
        {
          "name": "",
          "type": "uint256",
          "internalType": "uint256"
        }
      ],
      "stateMutability": "view"
    },
    {
      "type": "function",
      "name": "escrows",
      "inputs": [
        {
          "name": "",
          "type": "uint256",
          "internalType": "uint256"
        }
      ],
      "outputs": [
        {
          "name": "id",
          "type": "uint256",
          "internalType": "uint256"
        },
        {
          "name": "buyer",
          "type": "address",
          "internalType": "address"
        },
        {
          "name": "seller",
          "type": "address",
          "internalType": "address"
        },
        {
          "name": "amount",
          "type": "uint256",
          "internalType": "uint256"
        },
        {
          "name": "productId",
          "type": "uint256",
          "internalType": "uint256"
        },
        {
          "name": "status",
          "type": "uint8",
          "internalType": "enum Escrow.EscrowStatus"
        },
        {
          "name": "createdAt",
          "type": "uint256",
          "internalType": "uint256"
        },
        {
          "name": "disputeRaisedAt",
          "type": "uint256",
          "internalType": "uint256"
        },
        {
          "name": "resolver",
          "type": "address",
          "internalType": "address"
        }
      ],
      "stateMutability": "view"
    },
    {
      "type": "function",
      "name": "getBuyerEscrows",
      "inputs": [
        {
          "name": "_buyer",
          "type": "address",
          "internalType": "address"
        }
      ],
      "outputs": [
        {
          "name": "",
          "type": "uint256[]",
          "internalType": "uint256[]"
        }
      ],
      "stateMutability": "view"
    },
    {
      "type": "function",
      "name": "getDisputeTimeRemaining",
      "inputs": [
        {
          "name": "_escrowId",
          "type": "uint256",
          "internalType": "uint256"
        }
      ],
      "outputs": [
        {
          "name": "",
          "type": "uint256",
          "internalType": "uint256"
        }
      ],
      "stateMutability": "view"
    },
    {
      "type": "function",
      "name": "getEscrow",
      "inputs": [
        {
          "name": "_escrowId",
          "type": "uint256",
          "internalType": "uint256"
        }
      ],
      "outputs": [
        {
          "name": "",
          "type": "tuple",
          "internalType": "struct Escrow.EscrowData",
          "components": [
            {
              "name": "id",
              "type": "uint256",
              "internalType": "uint256"
            },
            {
              "name": "buyer",
              "type": "address",
              "internalType": "address"
            },
            {
              "name": "seller",
              "type": "address",
              "internalType": "address"
            },
            {
              "name": "amount",
              "type": "uint256",
              "internalType": "uint256"
            },
            {
              "name": "productId",
              "type": "uint256",
              "internalType": "uint256"
            },
            {
              "name": "status",
              "type": "uint8",
              "internalType": "enum Escrow.EscrowStatus"
            },
            {
              "name": "createdAt",
              "type": "uint256",
              "internalType": "uint256"
            },
            {
              "name": "disputeRaisedAt",
              "type": "uint256",
              "internalType": "uint256"
            },
            {
              "name": "resolver",
              "type": "address",
              "internalType": "address"
            }
          ]
        }
      ],
      "stateMutability": "view"
    },
    {
      "type": "function",
      "name": "getSellerEscrows",
      "inputs": [
        {
          "name": "_seller",
          "type": "address",
          "internalType": "address"
        }
      ],
      "outputs": [
        {
          "name": "",
          "type": "uint256[]",
          "internalType": "uint256[]"
        }
      ],
      "stateMutability": "view"
    },
    {
      "type": "function",
      "name": "isDisputeWindowOpen",
      "inputs": [
        {
          "name": "_escrowId",
          "type": "uint256",
          "internalType": "uint256"
        }
      ],
      "outputs": [
        {
          "name": "",
          "type": "bool",
          "internalType": "bool"
        }
      ],
      "stateMutability": "view"
    },
    {
      "type": "function",
      "name": "marketplace",
      "inputs": [],
      "outputs": [
        {
          "name": "",
          "type": "address",
          "internalType": "address"
        }
      ],
      "stateMutability": "view"
    },
    {
      "type": "function",
      "name": "owner",
      "inputs": [],
      "outputs": [
        {
          "name": "",
          "type": "address",
          "internalType": "address"
        }
      ],
      "stateMutability": "view"
    },
    {
      "type": "function",
      "name": "raiseDispute",
      "inputs": [
        {
          "name": "_escrowId",
          "type": "uint256",
          "internalType": "uint256"
        }
      ],
      "outputs": [],
      "stateMutability": "nonpayable"
    },
    {
      "type": "function",
      "name": "refund",
      "inputs": [
        {
          "name": "_escrowId",
          "type": "uint256",
          "internalType": "uint256"
        }
      ],
      "outputs": [],
      "stateMutability": "nonpayable"
    },
    {
      "type": "function",
      "name": "releasePayment",
      "inputs": [
        {
          "name": "_escrowId",
          "type": "uint256",
          "internalType": "uint256"
        }
      ],
      "outputs": [],
      "stateMutability": "nonpayable"
    },
    {
      "type": "function",
      "name": "resolveDispute",
      "inputs": [
        {
          "name": "_escrowId",
          "type": "uint256",
          "internalType": "uint256"
        },
        {
          "name": "_releaseToSeller",
          "type": "bool",
          "internalType": "bool"
        }
      ],
      "outputs": [],
      "stateMutability": "nonpayable"
    },
    {
      "type": "function",
      "name": "sellerEscrows",
      "inputs": [
        {
          "name": "",
          "type": "address",
          "internalType": "address"
        },
        {
          "name": "",
          "type": "uint256",
          "internalType": "uint256"
        }
      ],
      "outputs": [
        {
          "name": "",
          "type": "uint256",
          "internalType": "uint256"
        }
      ],
      "stateMutability": "view"
    },
    {
      "type": "function",
      "name": "setMarketplace",
      "inputs": [
        {
          "name": "_marketplace",
          "type": "address",
          "internalType": "address"
        }
      ],
      "outputs": [],
      "stateMutability": "nonpayable"
    },
    {
      "type": "function",
      "name": "transferOwnership",
      "inputs": [
        {
          "name": "_newOwner",
          "type": "address",
          "internalType": "address"
        }
      ],
      "outputs": [],
      "stateMutability": "nonpayable"
    },
    {
      "type": "event",
      "name": "DisputeRaised",
      "inputs": [
        {
          "name": "escrowId",
          "type": "uint256",
          "indexed": true,
          "internalType": "uint256"
        },
        {
          "name": "raisedBy",
          "type": "address",
          "indexed": true,
          "internalType": "address"
        },
        {
          "name": "raisedAt",
          "type": "uint256",
          "indexed": false,
          "internalType": "uint256"
        }
      ],
      "anonymous": false
    },
    {
      "type": "event",
      "name": "DisputeResolved",
      "inputs": [
        {
          "name": "escrowId",
          "type": "uint256",
          "indexed": true,
          "internalType": "uint256"
        },
        {
          "name": "resolution",
          "type": "uint8",
          "indexed": false,
          "internalType": "enum Escrow.EscrowStatus"
        },
        {
          "name": "resolver",
          "type": "address",
          "indexed": true,
          "internalType": "address"
        }
      ],
      "anonymous": false
    },
    {
      "type": "event",
      "name": "EscrowCreated",
      "inputs": [
        {
          "name": "escrowId",
          "type": "uint256",
          "indexed": true,
          "internalType": "uint256"
        },
        {
          "name": "buyer",
          "type": "address",
          "indexed": true,
          "internalType": "address"
        },
        {
          "name": "seller",
          "type": "address",
          "indexed": true,
          "internalType": "address"
        },
        {
          "name": "amount",
          "type": "uint256",
          "indexed": false,
          "internalType": "uint256"
        },
        {
          "name": "productId",
          "type": "uint256",
          "indexed": false,
          "internalType": "uint256"
        }
      ],
      "anonymous": false
    },
    {
      "type": "event",
      "name": "MarketplaceSet",
      "inputs": [
        {
          "name": "marketplace",
          "type": "address",
          "indexed": true,
          "internalType": "address"
        }
      ],
      "anonymous": false
    },
    {
      "type": "event",
      "name": "PaymentReleased",
      "inputs": [
        {
          "name": "escrowId",
          "type": "uint256",
          "indexed": true,
          "internalType": "uint256"
        },
        {
          "name": "seller",
          "type": "address",
          "indexed": true,
          "internalType": "address"
        },
        {
          "name": "amount",
          "type": "uint256",
          "indexed": false,
          "internalType": "uint256"
        }
      ],
      "anonymous": false
    },
    {
      "type": "event",
      "name": "RefundIssued",
      "inputs": [
        {
          "name": "escrowId",
          "type": "uint256",
          "indexed": true,
          "internalType": "uint256"
        },
        {
          "name": "buyer",
          "type": "address",
          "indexed": true,
          "internalType": "address"
        },
        {
          "name": "amount",
          "type": "uint256",
          "indexed": false,
          "internalType": "uint256"
        }
      ],
      "anonymous": false
    },
    {
      "type": "error",
      "name": "Escrow__AlreadyRefunded",
      "inputs": []
    },
    {
      "type": "error",
      "name": "Escrow__AlreadyReleased",
      "inputs": []
    },
    {
      "type": "error",
      "name": "Escrow__DisputeAlreadyRaised",
      "inputs": []
    },
    {
      "type": "error",
      "name": "Escrow__DisputeWindowClosed",
      "inputs": []
    },
    {
      "type": "error",
      "name": "Escrow__EscrowNotFound",
      "inputs": []
    },
    {
      "type": "error",
      "name": "Escrow__InvalidAmount",
      "inputs": []
    },
    {
      "type": "error",
      "name": "Escrow__InvalidState",
      "inputs": []
    },
    {
      "type": "error",
      "name": "Escrow__NoDispute",
      "inputs": []
    },
    {
      "type": "error",
      "name": "Escrow__NotAuthorized",
      "inputs": []
    },
    {
      "type": "error",
      "name": "Escrow__TransferFailed",
      "inputs": []
    },
    {
      "type": "error",
      "name": "Escrow__ZeroAddress",
      "inputs": []
    }
  ],
  "bytecode": {
    "object": "0x60808060405234602757600180546001600160a01b03191633179055610f3c908161002c8239f35b5f80fdfe608080604052600436101561005f575b50361561001a575f80fd5b60405162461bcd60e51b815260206004820152601b60248201527f446972656374206465706f73697473206e6f7420616c6c6f77656400000000006044820152606490fd5b5f3560e01c908163012f52ee14610cd6575080631b5924cf14610c8d578063278ecde114610b8c5780632ac08bd314610b1a57806334b25ee2146109d657806346e127a41461098657806370c951a51461092e57806373ad6c2d146108bc5780637d19e5961461076657806388685cd9146106805780638da5cb5b1461065857806395ccea67146105f6578063a5c1674e146104f0578063a8880fdc146104a8578063abc8c7af14610480578063b3f197d7146103fe578063c3617650146101ef578063c7ceafea146101d3578063f2fde38b146101685763f585dc5714610147575f61000f565b34610164575f36600319011261016457602060405162093a808152f35b5f80fd5b3461016457602036600319011261016457610181610d86565b600154906001600160a01b03821633036101c4576001600160a01b03169081156101b5576001600160a01b03191617600155005b637d8e84fb60e11b5f5260045ffd5b63337b5acb60e01b5f5260045ffd5b34610164575f3660031901126101645760205f54604051908152f35b606036600319011261016457610203610d86565b6024356001600160a01b038116908190036101645760025460443592906001600160a01b031633036101c4576001600160a01b031690811580156103f6575b6101b55734156103e7575f545f1981146103d35760010191825f5560405161026981610dfe565b838152602080820183815260408084018681523460608601908152608086018a81525f60a088018181524260c08a0190815260e08a018381526101008b018481528e855260039a8b90529790932099518a55965160018a0180546001600160a01b03199081166001600160a01b0393841617909155955160028b01805490971691161790945591519587019590955593516004860155519097929391926005808401939192908110156103bf5760209989967f59e4b8728799382406714f1c57de5c893d2772f9a8bf9950c5afe4397e6486549660409660089460ff8019835416911617905551600685015551600784015560018060a01b0390511691019060018060a01b03166bffffffffffffffffffffffff60a01b825416179055845f526004885261039984835f20610ecd565b855f52600588526103ac84835f20610ecd565b81519034825288820152a4604051908152f35b634e487b7160e01b5f52602160045260245ffd5b634e487b7160e01b5f52601160045260245ffd5b6315a4487360e31b5f5260045ffd5b508015610242565b34610164576020366003190112610164576001600160a01b0361041f610d86565b165f52600460205260405f206040519081602082549182815201915f5260205f20905f5b81811061046a576104668561045a81870382610e2f565b60405191829182610dc5565b0390f35b8254845260209093019260019283019201610443565b34610164575f366003190112610164576002546040516001600160a01b039091168152602090f35b3461016457602036600319011261016457600435805f52600360205260405f2054156104e1576104d9602091610e90565b604051908152f35b633b363da360e01b5f5260045ffd5b3461016457602036600319011261016457600435805f52600360205260405f2054156104e157805f52600360205260405f2060018060a01b03600182015416331415806105df575b6101c457600581019060ff82541660058110156103bf576105d057600681015462093a8081018091116103d35742116105c1576007019081546105b257600360ff19825416179055429055604051904282527fe0e58e9cc5ed7ef092d3e14cff6136d23ebf75a16cf3c8257ef8804811d8b0f360203393a3005b6398ebc90360e01b5f5260045ffd5b637616431160e11b5f5260045ffd5b63231465f760e11b5f5260045ffd5b5060028101546001600160a01b0316331415610538565b34610164576040366003190112610164576004356001600160a01b03811690819003610164576001546001600160a01b031633036101c4575f80808093602435905af1610641610e51565b501561064957005b630fbb62e760e21b5f5260045ffd5b34610164575f366003190112610164576001546040516001600160a01b039091168152602090f35b3461016457602036600319011261016457600435805f52600360205260405f2054156104e157805f52600360205260405f209060018060a01b0360018301541633141580610751575b6101c4576005820160ff81541660058110156103bf576105d057600160ff19825416179055600282015f808080600360018060a01b038654169701968754905af1610712610e51565b50156106495760207f21d71db5be59bb9fa133895586b7404307dd33fb93b16db09dc6f1d9d7d231b09160018060a01b039054169354604051908152a3005b506002546001600160a01b03163314156106c9565b34610164576020366003190112610164575f61010060405161078781610dfe565b8281528260208201528260408201528260608201528260808201528260a08201528260c08201528260e082015201526004355f52600360205260405f206040516107d081610dfe565b8154815260018201546001600160a01b03908116602083019081526002840154909116604083019081526003840154606084019081526004850154608085019081526005808701549296939260ff169160a08701918310156103bf57918152600684015460c08701908152600785015460e088019081526008909501546001600160a01b0390811661010089019081526040805199518a529751821660208a01529451169587019590955295516060860152516080850152935161012094929061089e9060a0860190610d79565b5160c08401525160e0830152516001600160a01b0316610100820152f35b34610164576020366003190112610164576108d5610d86565b6001546001600160a01b031633036101c4576001600160a01b031680156101b557600280546001600160a01b031916821790557f78fd71746fd8724dd16b5a93e765a076614159ebdc73d996a6a8884f358898e55f80a2005b3461016457604036600319011261016457610947610d86565b6001600160a01b03165f908152600460205260409020805460243591908210156101645760209161097791610d9c565b90549060031b1c604051908152f35b3461016457602036600319011261016457600435805f52600360205260405f2054156104e1575f526003602052600660405f20015462093a8081018091116103d357602090604051904211158152f35b34610164576040366003190112610164576004356024358015158103610164576001546001600160a01b031633036101c457815f52600360205260405f2054156104e157815f52600360205260405f206005810160ff81541660058110156103bf57600303610b0b57805460ff191660041790556008810180546001600160a01b031916331790555f908190819081908515610ad8576002810154600390910154906001600160a01b03165af1610a8b610e51565b5015610649575b15610ad0576001905b610aa86040518093610d79565b7fd479d35c2c3aee3d59f9972a1214f8effa0c54c4f8ff4dcf020913c0a5e27c6260203393a3005b600290610a9b565b6001810154600390910154906001600160a01b03165af1610af7610e51565b50610a9257630fbb62e760e21b5f5260045ffd5b633ac49a9360e01b5f5260045ffd5b34610164576020366003190112610164576001600160a01b03610b3b610d86565b165f52600560205260405f206040519081602082549182815201915f5260205f20905f5b818110610b76576104668561045a81870382610e2f565b8254845260209093019260019283019201610b5f565b3461016457602036600319011261016457600435805f52600360205260405f2054156104e157805f52600360205260405f209060018060a01b0360028301541633141580610c78575b80610c63575b6101c4576005820160ff81541660058110156103bf576105d057600260ff19825416179055600182015f808080600360018060a01b038654169701968754905af1610c24610e51565b50156106495760207f7a482fdeb6bc9a1376f597068a214a7a39472bb2eff1b8cad21ba04f49ddca1b9160018060a01b039054169354604051908152a3005b506001546001600160a01b0316331415610bdb565b506002546001600160a01b0316331415610bd5565b3461016457604036600319011261016457610ca6610d86565b6001600160a01b03165f908152600560205260409020805460243591908210156101645760209161097791610d9c565b3461016457602036600319011261016457610120906004355f52600360205260405f2080549060018060a01b03600182015416610d6760018060a01b03600284015416600384015460048501549060ff60058701541692600687015495600788015497600860018060a01b0391015416988a5260208a015260408901526060880152608087015260a0860190610d79565b60c084015260e0830152610100820152f35b9060058210156103bf5752565b600435906001600160a01b038216820361016457565b8054821015610db1575f5260205f2001905f90565b634e487b7160e01b5f52603260045260245ffd5b60206040818301928281528451809452019201905f5b818110610de85750505090565b8251845260209384019390920191600101610ddb565b610120810190811067ffffffffffffffff821117610e1b57604052565b634e487b7160e01b5f52604160045260245ffd5b90601f8019910116810190811067ffffffffffffffff821117610e1b57604052565b3d15610e8b573d9067ffffffffffffffff8211610e1b5760405191610e80601f8201601f191660200184610e2f565b82523d5f602084013e565b606090565b5f526003602052600660405f20015462093a808101908181116103d35781421015610ec75742900362093a80019081116103d35790565b50505f90565b805468010000000000000000811015610e1b57610eef91600182018155610d9c565b819291549060031b91821b915f19901b191617905556fea2646970667358221220f758ca21781d4e85252d6ac045279a6525a00eeccca7a8e6217d5ff69bbf15d464736f6c634300081e0033",
    "linkReferences": {}
  },
  "methodIdentifiers": {
    "DISPUTE_WINDOW()": "f585dc57",
    "buyerEscrows(address,uint256)": "70c951a5",
    "createEscrow(address,address,uint256)": "c3617650",
    "emergencyWithdraw(address,uint256)": "95ccea67",
    "escrowCounter()": "c7ceafea",
    "escrows(uint256)": "012f52ee",
    "getBuyerEscrows(address)": "b3f197d7",
    "getDisputeTimeRemaining(uint256)": "a8880fdc",
    "getEscrow(uint256)": "7d19e596",
    "getSellerEscrows(address)": "2ac08bd3",
    "isDisputeWindowOpen(uint256)": "46e127a4",
    "marketplace()": "abc8c7af",
    "owner()": "8da5cb5b",
    "raiseDispute(uint256)": "a5c1674e",
    "refund(uint256)": "278ecde1",
    "releasePayment(uint256)": "88685cd9",
    "resolveDispute(uint256,bool)": "34b25ee2",
    "sellerEscrows(address,uint256)": "1b5924cf",
    "setMarketplace(address)": "73ad6c2d",
    "transferOwnership(address)": "f2fde38b"
  },
  "id": 21
}