{
  "_format": "hh-sol-artifact-1",
  "contractName": "Marketplace",
  "sourceName": "contracts/Marketplace.sol",
  "abi": [
    {
      "inputs": [
        {
          "internalType": "address payable",
          "name": "_escrowContract",
          "type": "address"
        }
      ],
      "stateMutability": "nonpayable",
      "type": "constructor"
    },
    {
      "inputs": [],
      "name": "Marketplace__AlreadySeller",
      "type": "error"
    },
    {
      "inputs": [],
      "name": "Marketplace__EscrowNotSet",
      "type": "error"
    },
    {
      "inputs": [],
      "name": "Marketplace__InsufficientStock",
      "type": "error"
    },
    {
      "inputs": [],
      "name": "Marketplace__InvalidIPFSHash",
      "type": "error"
    },
    {
      "inputs": [],
      "name": "Marketplace__InvalidPrice",
      "type": "error"
    },
    {
      "inputs": [],
      "name": "Marketplace__InvalidState",
      "type": "error"
    },
    {
      "inputs": [],
      "name": "Marketplace__NotProductOwner",
      "type": "error"
    },
    {
      "inputs": [],
      "name": "Marketplace__NotSeller",
      "type": "error"
    },
    {
      "inputs": [],
      "name": "Marketplace__OrderNotFound",
      "type": "error"
    },
    {
      "inputs": [],
      "name": "Marketplace__ProductNotActive",
      "type": "error"
    },
    {
      "inputs": [],
      "name": "Marketplace__ProductNotFound",
      "type": "error"
    },
    {
      "inputs": [],
      "name": "Marketplace__Unauthorized",
      "type": "error"
    },
    {
      "anonymous": false,
      "inputs": [
        {
          "indexed": true,
          "internalType": "uint256",
          "name": "orderId",
          "type": "uint256"
        },
        {
          "indexed": true,
          "internalType": "uint256",
          "name": "productId",
          "type": "uint256"
        },
        {
          "indexed": true,
          "internalType": "address",
          "name": "buyer",
          "type": "address"
        },
        {
          "indexed": false,
          "internalType": "address",
          "name": "seller",
          "type": "address"
        },
        {
          "indexed": false,
          "internalType": "uint256",
          "name": "totalAmount",
          "type": "uint256"
        },
        {
          "indexed": false,
          "internalType": "uint256",
          "name": "escrowId",
          "type": "uint256"
        }
      ],
      "name": "OrderCreated",
      "type": "event"
    },
    {
      "anonymous": false,
      "inputs": [
        {
          "indexed": true,
          "internalType": "uint256",
          "name": "orderId",
          "type": "uint256"
        },
        {
          "indexed": false,
          "internalType": "enum Marketplace.OrderStatus",
          "name": "oldStatus",
          "type": "uint8"
        },
        {
          "indexed": false,
          "internalType": "enum Marketplace.OrderStatus",
          "name": "newStatus",
          "type": "uint8"
        }
      ],
      "name": "OrderStatusChanged",
      "type": "event"
    },
    {
      "anonymous": false,
      "inputs": [
        {
          "indexed": true,
          "internalType": "uint256",
          "name": "productId",
          "type": "uint256"
        },
        {
          "indexed": true,
          "internalType": "address",
          "name": "seller",
          "type": "address"
        },
        {
          "indexed": false,
          "internalType": "string",
          "name": "name",
          "type": "string"
        },
        {
          "indexed": false,
          "internalType": "uint256",
          "name": "price",
          "type": "uint256"
        }
      ],
      "name": "ProductCreated",
      "type": "event"
    },
    {
      "anonymous": false,
      "inputs": [
        {
          "indexed": true,
          "internalType": "uint256",
          "name": "productId",
          "type": "uint256"
        },
        {
          "indexed": true,
          "internalType": "address",
          "name": "seller",
          "type": "address"
        }
      ],
      "name": "ProductRemoved",
      "type": "event"
    },
    {
      "anonymous": false,
      "inputs": [
        {
          "indexed": true,
          "internalType": "uint256",
          "name": "productId",
          "type": "uint256"
        },
        {
          "indexed": false,
          "internalType": "uint256",
          "name": "newPrice",
          "type": "uint256"
        },
        {
          "indexed": false,
          "internalType": "uint256",
          "name": "newStock",
          "type": "uint256"
        },
        {
          "indexed": false,
          "internalType": "bool",
          "name": "isActive",
          "type": "bool"
        }
      ],
      "name": "ProductUpdated",
      "type": "event"
    },
    {
      "anonymous": false,
      "inputs": [
        {
          "indexed": true,
          "internalType": "address",
          "name": "seller",
          "type": "address"
        },
        {
          "indexed": false,
          "internalType": "string",
          "name": "storeName",
          "type": "string"
        },
        {
          "indexed": false,
          "internalType": "uint256",
          "name": "registeredAt",
          "type": "uint256"
        }
      ],
      "name": "SellerRegistered",
      "type": "event"
    },
    {
      "inputs": [
        {
          "internalType": "address",
          "name": "",
          "type": "address"
        },
        {
          "internalType": "uint256",
          "name": "",
          "type": "uint256"
        }
      ],
      "name": "buyerOrders",
      "outputs": [
        {
          "internalType": "uint256",
          "name": "",
          "type": "uint256"
        }
      ],
      "stateMutability": "view",
      "type": "function"
    },
    {
      "inputs": [
        {
          "internalType": "uint256",
          "name": "_orderId",
          "type": "uint256"
        }
      ],
      "name": "cancelOrder",
      "outputs": [],
      "stateMutability": "nonpayable",
      "type": "function"
    },
    {
      "inputs": [
        {
          "internalType": "uint256",
          "name": "_orderId",
          "type": "uint256"
        }
      ],
      "name": "confirmOrder",
      "outputs": [],
      "stateMutability": "nonpayable",
      "type": "function"
    },
    {
      "inputs": [
        {
          "internalType": "uint256",
          "name": "_productId",
          "type": "uint256"
        },
        {
          "internalType": "uint256",
          "name": "_quantity",
          "type": "uint256"
        },
        {
          "internalType": "string",
          "name": "_shippingAddress",
          "type": "string"
        }
      ],
      "name": "createOrder",
      "outputs": [
        {
          "internalType": "uint256",
          "name": "orderId",
          "type": "uint256"
        },
        {
          "internalType": "uint256",
          "name": "escrowId",
          "type": "uint256"
        }
      ],
      "stateMutability": "payable",
      "type": "function"
    },
    {
      "inputs": [
        {
          "internalType": "string",
          "name": "_name",
          "type": "string"
        },
        {
          "internalType": "string",
          "name": "_description",
          "type": "string"
        },
        {
          "internalType": "uint256",
          "name": "_price",
          "type": "uint256"
        },
        {
          "internalType": "uint256",
          "name": "_stock",
          "type": "uint256"
        },
        {
          "internalType": "string",
          "name": "_ipfsHash",
          "type": "string"
        }
      ],
      "name": "createProduct",
      "outputs": [
        {
          "internalType": "uint256",
          "name": "",
          "type": "uint256"
        }
      ],
      "stateMutability": "nonpayable",
      "type": "function"
    },
    {
      "inputs": [],
      "name": "escrowContract",
      "outputs": [
        {
          "internalType": "contract Escrow",
          "name": "",
          "type": "address"
        }
      ],
      "stateMutability": "view",
      "type": "function"
    },
    {
      "inputs": [
        {
          "internalType": "uint256",
          "name": "",
          "type": "uint256"
        }
      ],
      "name": "escrowToOrder",
      "outputs": [
        {
          "internalType": "uint256",
          "name": "",
          "type": "uint256"
        }
      ],
      "stateMutability": "view",
      "type": "function"
    },
    {
      "inputs": [
        {
          "internalType": "uint256",
          "name": "_orderId",
          "type": "uint256"
        }
      ],
      "name": "fulfillOrder",
      "outputs": [],
      "stateMutability": "nonpayable",
      "type": "function"
    },
    {
      "inputs": [
        {
          "internalType": "address",
          "name": "_buyer",
          "type": "address"
        }
      ],
      "name": "getBuyerOrders",
      "outputs": [
        {
          "internalType": "uint256[]",
          "name": "",
          "type": "uint256[]"
        }
      ],
      "stateMutability": "view",
      "type": "function"
    },
    {
      "inputs": [],
      "name": "getOrderCount",
      "outputs": [
        {
          "internalType": "uint256",
          "name": "",
          "type": "uint256"
        }
      ],
      "stateMutability": "view",
      "type": "function"
    },
    {
      "inputs": [],
      "name": "getProductCount",
      "outputs": [
        {
          "internalType": "uint256",
          "name": "",
          "type": "uint256"
        }
      ],
      "stateMutability": "view",
      "type": "function"
    },
    {
      "inputs": [
        {
          "internalType": "uint256[]",
          "name": "_productIds",
          "type": "uint256[]"
        }
      ],
      "name": "getProducts",
      "outputs": [
        {
          "components": [
            {
              "internalType": "uint256",
              "name": "id",
              "type": "uint256"
            },
            {
              "internalType": "address",
              "name": "seller",
              "type": "address"
            },
            {
              "internalType": "string",
              "name": "name",
              "type": "string"
            },
            {
              "internalType": "string",
              "name": "description",
              "type": "string"
            },
            {
              "internalType": "uint256",
              "name": "price",
              "type": "uint256"
            },
            {
              "internalType": "uint256",
              "name": "stock",
              "type": "uint256"
            },
            {
              "internalType": "string",
              "name": "ipfsHash",
              "type": "string"
            },
            {
              "internalType": "bool",
              "name": "isActive",
              "type": "bool"
            },
            {
              "internalType": "uint256",
              "name": "createdAt",
              "type": "uint256"
            }
          ],
          "internalType": "struct Marketplace.Product[]",
          "name": "",
          "type": "tuple[]"
        }
      ],
      "stateMutability": "view",
      "type": "function"
    },
    {
      "inputs": [
        {
          "internalType": "address",
          "name": "_seller",
          "type": "address"
        }
      ],
      "name": "getSellerOrders",
      "outputs": [
        {
          "internalType": "uint256[]",
          "name": "",
          "type": "uint256[]"
        }
      ],
      "stateMutability": "view",
      "type": "function"
    },
    {
      "inputs": [
        {
          "internalType": "address",
          "name": "_seller",
          "type": "address"
        }
      ],
      "name": "getSellerProducts",
      "outputs": [
        {
          "internalType": "uint256[]",
          "name": "",
          "type": "uint256[]"
        }
      ],
      "stateMutability": "view",
      "type": "function"
    },
    {
      "inputs": [
        {
          "internalType": "address",
          "name": "_addr",
          "type": "address"
        }
      ],
      "name": "isSeller",
      "outputs": [
        {
          "internalType": "bool",
          "name": "",
          "type": "bool"
        }
      ],
      "stateMutability": "view",
      "type": "function"
    },
    {
      "inputs": [
        {
          "internalType": "uint256",
          "name": "_escrowId",
          "type": "uint256"
        },
        {
          "internalType": "bool",
          "name": "releasedToSeller",
          "type": "bool"
        }
      ],
      "name": "onDisputeResolved",
      "outputs": [],
      "stateMutability": "nonpayable",
      "type": "function"
    },
    {
      "inputs": [],
      "name": "orderCounter",
      "outputs": [
        {
          "internalType": "uint256",
          "name": "",
          "type": "uint256"
        }
      ],
      "stateMutability": "view",
      "type": "function"
    },
    {
      "inputs": [
        {
          "internalType": "uint256",
          "name": "",
          "type": "uint256"
        }
      ],
      "name": "orders",
      "outputs": [
        {
          "internalType": "uint256",
          "name": "id",
          "type": "uint256"
        },
        {
          "internalType": "uint256",
          "name": "productId",
          "type": "uint256"
        },
        {
          "internalType": "address",
          "name": "buyer",
          "type": "address"
        },
        {
          "internalType": "address",
          "name": "seller",
          "type": "address"
        },
        {
          "internalType": "uint256",
          "name": "quantity",
          "type": "uint256"
        },
        {
          "internalType": "uint256",
          "name": "totalAmount",
          "type": "uint256"
        },
        {
          "internalType": "string",
          "name": "shippingAddress",
          "type": "string"
        },
        {
          "internalType": "enum Marketplace.OrderStatus",
          "name": "status",
          "type": "uint8"
        },
        {
          "internalType": "uint256",
          "name": "createdAt",
          "type": "uint256"
        },
        {
          "internalType": "uint256",
          "name": "escrowId",
          "type": "uint256"
        }
      ],
      "stateMutability": "view",
      "type": "function"
    },
    {
      "inputs": [],
      "name": "owner",
      "outputs": [
        {
          "internalType": "address",
          "name": "",
          "type": "address"
        }
      ],
      "stateMutability": "view",
      "type": "function"
    },
    {
      "inputs": [],
      "name": "productCounter",
      "outputs": [
        {
          "internalType": "uint256",
          "name": "",
          "type": "uint256"
        }
      ],
      "stateMutability": "view",
      "type": "function"
    },
    {
      "inputs": [
        {
          "internalType": "uint256",
          "name": "",
          "type": "uint256"
        }
      ],
      "name": "products",
      "outputs": [
        {
          "internalType": "uint256",
          "name": "id",
          "type": "uint256"
        },
        {
          "internalType": "address",
          "name": "seller",
          "type": "address"
        },
        {
          "internalType": "string",
          "name": "name",
          "type": "string"
        },
        {
          "internalType": "string",
          "name": "description",
          "type": "string"
        },
        {
          "internalType": "uint256",
          "name": "price",
          "type": "uint256"
        },
        {
          "internalType": "uint256",
          "name": "stock",
          "type": "uint256"
        },
        {
          "internalType": "string",
          "name": "ipfsHash",
          "type": "string"
        },
        {
          "internalType": "bool",
          "name": "isActive",
          "type": "bool"
        },
        {
          "internalType": "uint256",
          "name": "createdAt",
          "type": "uint256"
        }
      ],
      "stateMutability": "view",
      "type": "function"
    },
    {
      "inputs": [
        {
          "internalType": "uint256",
          "name": "_orderId",
          "type": "uint256"
        }
      ],
      "name": "raiseDispute",
      "outputs": [],
      "stateMutability": "nonpayable",
      "type": "function"
    },
    {
      "inputs": [
        {
          "internalType": "string",
          "name": "_storeName",
          "type": "string"
        },
        {
          "internalType": "string",
          "name": "_description",
          "type": "string"
        }
      ],
      "name": "registerSeller",
      "outputs": [],
      "stateMutability": "nonpayable",
      "type": "function"
    },
    {
      "inputs": [
        {
          "internalType": "uint256",
          "name": "_productId",
          "type": "uint256"
        }
      ],
      "name": "removeProduct",
      "outputs": [],
      "stateMutability": "nonpayable",
      "type": "function"
    },
    {
      "inputs": [
        {
          "internalType": "uint256",
          "name": "",
          "type": "uint256"
        }
      ],
      "name": "sellerAddresses",
      "outputs": [
        {
          "internalType": "address",
          "name": "",
          "type": "address"
        }
      ],
      "stateMutability": "view",
      "type": "function"
    },
    {
      "inputs": [
        {
          "internalType": "address",
          "name": "",
          "type": "address"
        },
        {
          "internalType": "uint256",
          "name": "",
          "type": "uint256"
        }
      ],
      "name": "sellerOrders",
      "outputs": [
        {
          "internalType": "uint256",
          "name": "",
          "type": "uint256"
        }
      ],
      "stateMutability": "view",
      "type": "function"
    },
    {
      "inputs": [
        {
          "internalType": "address",
          "name": "",
          "type": "address"
        },
        {
          "internalType": "uint256",
          "name": "",
          "type": "uint256"
        }
      ],
      "name": "sellerProducts",
      "outputs": [
        {
          "internalType": "uint256",
          "name": "",
          "type": "uint256"
        }
      ],
      "stateMutability": "view",
      "type": "function"
    },
    {
      "inputs": [
        {
          "internalType": "address",
          "name": "",
          "type": "address"
        }
      ],
      "name": "sellers",
      "outputs": [
        {
          "internalType": "address",
          "name": "sellerAddress",
          "type": "address"
        },
        {
          "internalType": "string",
          "name": "storeName",
          "type": "string"
        },
        {
          "internalType": "string",
          "name": "description",
          "type": "string"
        },
        {
          "internalType": "bool",
          "name": "isActive",
          "type": "bool"
        },
        {
          "internalType": "uint256",
          "name": "registeredAt",
          "type": "uint256"
        }
      ],
      "stateMutability": "view",
      "type": "function"
    },
    {
      "inputs": [
        {
          "internalType": "address payable",
          "name": "_escrow",
          "type": "address"
        }
      ],
      "name": "setEscrowContract",
      "outputs": [],
      "stateMutability": "nonpayable",
      "type": "function"
    },
    {
      "inputs": [
        {
          "internalType": "address",
          "name": "_newOwner",
          "type": "address"
        }
      ],
      "name": "transferOwnership",
      "outputs": [],
      "stateMutability": "nonpayable",
      "type": "function"
    },
    {
      "inputs": [
        {
          "internalType": "uint256",
          "name": "_productId",
          "type": "uint256"
        },
        {
          "internalType": "uint256",
          "name": "_price",
          "type": "uint256"
        },
        {
          "internalType": "uint256",
          "name": "_stock",
          "type": "uint256"
        },
        {
          "internalType": "bool",
          "name": "_isActive",
          "type": "bool"
        }
      ],
      "name": "updateProduct",
      "outputs": [],
      "stateMutability": "nonpayable",
      "type": "function"
    }
  ],
  "bytecode": "0x6080604052348015600f57600080fd5b5060405161292a38038061292a833981016040819052602c91605e565b60028054336001600160a01b031991821617909155600380549091166001600160a01b0392909216919091179055608c565b600060208284031215606f57600080fd5b81516001600160a01b0381168114608557600080fd5b9392505050565b61288f8061009b6000396000f3fe6080604052600436106101d85760003560e01c80638da5cb5b11610102578063ccfcaea411610095578063ee95feaf11610064578063ee95feaf146105ab578063f2fde38b146105f7578063f42375b514610617578063faaac3901461063757600080fd5b8063ccfcaea41461052b578063e42a96e71461054b578063e4cbac401461056b578063e6a93e161461058b57600080fd5b8063a85c38ef116100d1578063a85c38ef14610492578063b789bf52146104c8578063c1302b34146104de578063c8371e57146104fe57600080fd5b80638da5cb5b146104055780639ea9d43914610425578063a45f2ebc14610445578063a5c1674e1461047257600080fd5b80635ee95cae1161017a5780636eb78e65116101495780636eb78e65146103635780637acc0b201461039b5780638ac7d79c146103d05780638d0a5fbb146103f057600080fd5b80635ee95cae146102ca5780636061f754146102ea5780636311e830146103125780636d47ab721461033257600080fd5b80634500cb60116101b65780634500cb601461025557806345cb4505146102755780634a348da914610295578063514fcac7146102aa57600080fd5b80631f16653b146101dd578063217b635e14610206578063318fd93d14610233575b600080fd5b3480156101e957600080fd5b506101f360005481565b6040519081526020015b60405180910390f35b34801561021257600080fd5b50610226610221366004611fd1565b610657565b6040516101fd919061208e565b34801561023f57600080fd5b5061025361024e3660046121d8565b61097a565b005b34801561026157600080fd5b506101f3610270366004612261565b610b3a565b34801561028157600080fd5b506101f3610290366004612261565b610b6b565b3480156102a157600080fd5b506000546101f3565b3480156102b657600080fd5b506102536102c536600461228d565b610b87565b3480156102d657600080fd5b506102536102e536600461228d565b610d2c565b6102fd6102f83660046122a6565b610e07565b604080519283526020830191909152016101fd565b34801561031e57600080fd5b5061025361032d36600461228d565b6111d8565b34801561033e57600080fd5b5061035261034d3660046122e1565b6112b6565b6040516101fd959493929190612305565b34801561036f57600080fd5b5061038361037e36600461228d565b611403565b6040516001600160a01b0390911681526020016101fd565b3480156103a757600080fd5b506103bb6103b636600461228d565b61142d565b6040516101fd99989796959493929190612350565b3480156103dc57600080fd5b506102536103eb36600461228d565b61161a565b3480156103fc57600080fd5b506001546101f3565b34801561041157600080fd5b50600254610383906001600160a01b031681565b34801561043157600080fd5b506102536104403660046123dc565b611761565b34801561045157600080fd5b506104656104603660046122e1565b61183a565b6040516101fd9190612408565b34801561047e57600080fd5b5061025361048d36600461228d565b6118a6565b34801561049e57600080fd5b506104b26104ad36600461228d565b611999565b6040516101fd9a99989796959493929190612483565b3480156104d457600080fd5b506101f360015481565b3480156104ea57600080fd5b506101f36104f9366004612261565b611a85565b34801561050a57600080fd5b506101f361051936600461228d565b600b6020526000908152604090205481565b34801561053757600080fd5b506101f36105463660046124f4565b611aa1565b34801561055757600080fd5b50600354610383906001600160a01b031681565b34801561057757600080fd5b506104656105863660046122e1565b611d38565b34801561059757600080fd5b506104656105a63660046122e1565b611da2565b3480156105b757600080fd5b506105e76105c63660046122e1565b6001600160a01b031660009081526005602052604090206003015460ff1690565b60405190151581526020016101fd565b34801561060357600080fd5b506102536106123660046122e1565b611e0c565b34801561062357600080fd5b506102536106323660046122e1565b611e59565b34801561064357600080fd5b506102536106523660046125ad565b611ea6565b606060008267ffffffffffffffff811115610674576106746125ec565b6040519080825280602002602001820160405280156106ff57816020015b6106ec6040518061012001604052806000815260200160006001600160a01b031681526020016060815260200160608152602001600081526020016000815260200160608152602001600015158152602001600081525090565b8152602001906001900390816106925790505b50905060005b83811015610970576006600086868481811061072357610723612602565b602090810292909201358352508181019290925260409081016000208151610120810183528154815260018201546001600160a01b031693810193909352600281018054919284019161077590612618565b80601f01602080910402602001604051908101604052809291908181526020018280546107a190612618565b80156107ee5780601f106107c3576101008083540402835291602001916107ee565b820191906000526020600020905b8154815290600101906020018083116107d157829003601f168201915b5050505050815260200160038201805461080790612618565b80601f016020809104026020016040519081016040528092919081815260200182805461083390612618565b80156108805780601f1061085557610100808354040283529160200191610880565b820191906000526020600020905b81548152906001019060200180831161086357829003601f168201915b5050505050815260200160048201548152602001600582015481526020016006820180546108ad90612618565b80601f01602080910402602001604051908101604052809291908181526020018280546108d990612618565b80156109265780601f106108fb57610100808354040283529160200191610926565b820191906000526020600020905b81548152906001019060200180831161090957829003601f168201915b5050509183525050600782015460ff1615156020820152600890910154604090910152825183908390811061095d5761095d612602565b6020908102919091010152600101610705565b5090505b92915050565b3360009081526005602052604090206003015460ff16156109ae5760405163bf972c2b60e01b815260040160405180910390fd5b600480546001810182556000919091527f8a35acfbc15ff81a39ae7d344fd709f28e8600b4aa8c65c6b64bfe7fe36bd19b0180546001600160a01b031916339081179091556040805160a08101825291825280516020601f8701819004810282018101909252858152828201918790879081908401838280828437600092019190915250505090825250604080516020601f8601819004810282018101909252848152918101919085908590819084018382808284376000920182905250938552505060016020808501829052426040958601523384526005815293909220845181546001600160a01b0319166001600160a01b039091161781559284015191830191610abc9150826126a1565b5060408201516002820190610ad190826126a1565b50606082015160038201805460ff191691151591909117905560809091015160049091015560405133907f214abe42c5a68ae0efa0e66475eaea293d0e9399052fb6e5fa12f93f5a7ed10690610b2c90879087904290612760565b60405180910390a250505050565b60096020528160005260406000208181548110610b5657600080fd5b90600052602060002001600091509150505481565b600a6020528160005260406000208181548110610b5657600080fd5b600081815260076020526040812054829103610bb65760405163c874921160e01b815260040160405180910390fd5b600082815260076020526040902060028101546001600160a01b03163314801590610bee575060038101546001600160a01b03163314155b15610c0c57604051634aae4fe960e01b815260040160405180910390fd5b6001600782015460ff166005811115610c2757610c2761244b565b14610c4557604051634aae4fe960e01b815260040160405180910390fd5b600354600982015460405163278ecde160e01b81526001600160a01b039092169163278ecde191610c7c9160040190815260200190565b600060405180830381600087803b158015610c9657600080fd5b505af1158015610caa573d6000803e3d6000fd5b50505060018201546000908152600660205260408120600484015460058201805492945090929091610cdd9084906127af565b909155505060078201805460ff81169160059160ff191660018302179055508460008051602061283a833981519152826005604051610d1d9291906127c2565b60405180910390a25050505050565b3360009081526005602052604090206003015460ff16610d5f57604051637b6363af60e01b815260040160405180910390fd5b600081815260066020526040812054829103610d8e5760405163fa130d1560e01b815260040160405180910390fd5b600082815260066020526040902060018101546001600160a01b03163314610dc95760405163d54e394960e01b815260040160405180910390fd5b60078101805460ff19169055604051339084907f1a16e887b520404248e84d208f647fde3544d93252671bed9e10609da817059f90600090a3505050565b600084815260066020526040812054819086908203610e395760405163fa130d1560e01b815260040160405180910390fd5b6000878152600660205260409020600781015460ff16610e6c5760405163a9a11ee360e01b815260040160405180910390fd5b8681600501541015610e9157604051631eb8ba1160e21b815260040160405180910390fd5b6001810154336001600160a01b0390911603610ec057604051634aae4fe960e01b815260040160405180910390fd5b6000878260040154610ed291906127dd565b9050803414610ef4576040516323de483d60e01b815260040160405180910390fd5b60018054906000610f04836127f4565b9091555050600180546003549184015460405163665d72fb60e11b81523360048201526001600160a01b039182166024820152604481018d9052606481018390529197509091169063ccbae5f690349060840160206040518083038185885af1158015610f75573d6000803e3d6000fd5b50505050506040513d601f19601f82011682018060405250810190610f9a919061280d565b604080516101408101825287815260208082018d9052338284015260018601546001600160a01b03166060830152608082018c905260a082018590528251601f8b018290048202810182019093528983529296509160c0830191908a908a90819084018382808284376000920191909152505050908252506020016001815242602080830191909152604091820187905260008881526007825282902083518155908301516001820155908201516002820180546001600160a01b039283166001600160a01b03199182161790915560608401516003840180549190931691161790556080820151600482015560a0820151600582015560c082015160068201906110a590826126a1565b5060e082015160078201805460ff191660018360058111156110c9576110c961244b565b021790555061010082015181600801556101208201518160090155905050878260050160008282546110fb9190612826565b90915550506000848152600b602090815260408083208890553380845260098352818420805460018082018355918652848620018a905586810180546001600160a01b039081168752600a8652848720805493840181558752958590209091018a9055548251941684529183018490528201869052908a9087907f3692c2e473686659b62de88a2ceb823a0585c86bf37d11ac339fcd06e497d5c89060600160405180910390a48460008051602061283a833981519152600060016040516111c49291906127c2565b60405180910390a250505094509492505050565b6000818152600760205260408120548291036112075760405163c874921160e01b815260040160405180910390fd5b600082815260076020526040902060038101546001600160a01b0316331461124257604051634aae4fe960e01b815260040160405180910390fd5b6001600782015460ff16600581111561125d5761125d61244b565b1461127b576040516314c436d760e11b815260040160405180910390fd5b60078101805460ff81169160029160ff191660018302179055508360008051602061283a833981519152826002604051610b2c9291906127c2565b600560205260009081526040902080546001820180546001600160a01b0390921692916112e290612618565b80601f016020809104026020016040519081016040528092919081815260200182805461130e90612618565b801561135b5780601f106113305761010080835404028352916020019161135b565b820191906000526020600020905b81548152906001019060200180831161133e57829003601f168201915b50505050509080600201805461137090612618565b80601f016020809104026020016040519081016040528092919081815260200182805461139c90612618565b80156113e95780601f106113be576101008083540402835291602001916113e9565b820191906000526020600020905b8154815290600101906020018083116113cc57829003601f168201915b505050506003830154600490930154919260ff1691905085565b6004818154811061141357600080fd5b6000918252602090912001546001600160a01b0316905081565b60066020526000908152604090208054600182015460028301805492936001600160a01b039092169261145f90612618565b80601f016020809104026020016040519081016040528092919081815260200182805461148b90612618565b80156114d85780601f106114ad576101008083540402835291602001916114d8565b820191906000526020600020905b8154815290600101906020018083116114bb57829003601f168201915b5050505050908060030180546114ed90612618565b80601f016020809104026020016040519081016040528092919081815260200182805461151990612618565b80156115665780601f1061153b57610100808354040283529160200191611566565b820191906000526020600020905b81548152906001019060200180831161154957829003601f168201915b50505050509080600401549080600501549080600601805461158790612618565b80601f01602080910402602001604051908101604052809291908181526020018280546115b390612618565b80156116005780601f106115d557610100808354040283529160200191611600565b820191906000526020600020905b8154815290600101906020018083116115e357829003601f168201915b505050506007830154600890930154919260ff1691905089565b6000818152600760205260408120548291036116495760405163c874921160e01b815260040160405180910390fd5b600082815260076020526040902060028101546001600160a01b0316331461168457604051634aae4fe960e01b815260040160405180910390fd5b6002600782015460ff16600581111561169f5761169f61244b565b146116bd57604051634aae4fe960e01b815260040160405180910390fd5b60035460098201546040516388685cd960e01b81526001600160a01b03909216916388685cd9916116f49160040190815260200190565b600060405180830381600087803b15801561170e57600080fd5b505af1158015611722573d6000803e3d6000fd5b5050505060078101805460ff81169160039160ff191660018302179055508360008051602061283a833981519152826003604051610b2c9291906127c2565b6003546001600160a01b0316331461178c57604051634aae4fe960e01b815260040160405180910390fd5b6000828152600b602090815260408083205480845260079283905292209081015460ff1683156117ca5760078201805460ff1916600317905561180f565b60078201805460ff191660049081179091556001830154600090815260066020526040812091840154600583018054919290916118089084906127af565b9091555050505b6007820154604051849160008051602061283a83398151915291610d1d91859160ff909116906127c2565b6001600160a01b03811660009081526009602090815260409182902080548351818402810184019094528084526060939283018282801561189a57602002820191906000526020600020905b815481526020019060010190808311611886575b50505050509050919050565b6000818152600760205260408120548291036118d55760405163c874921160e01b815260040160405180910390fd5b600082815260076020526040902060028101546001600160a01b0316331480159061190d575060038101546001600160a01b03163314155b1561192b57604051634aae4fe960e01b815260040160405180910390fd5b60035460098201546040516352e0b3a760e11b81526001600160a01b039092169163a5c1674e916119629160040190815260200190565b600060405180830381600087803b15801561197c57600080fd5b505af1158015611990573d6000803e3d6000fd5b50505050505050565b6007602052600090815260409020805460018201546002830154600384015460048501546005860154600687018054969795966001600160a01b03958616969490951694929391926119ea90612618565b80601f0160208091040260200160405190810160405280929190818152602001828054611a1690612618565b8015611a635780601f10611a3857610100808354040283529160200191611a63565b820191906000526020600020905b815481529060010190602001808311611a4657829003601f168201915b5050505060078301546008840154600990940154929360ff909116929091508a565b60086020528160005260406000208181548110610b5657600080fd5b3360009081526005602052604081206003015460ff16611ad457604051637b6363af60e01b815260040160405180910390fd5b84600003611af5576040516323de483d60e01b815260040160405180910390fd5b6000829003611b17576040516375d3e5a160e01b815260040160405180910390fd5b600080549080611b26836127f4565b9190505550600080549050604051806101200160405280828152602001336001600160a01b031681526020018b8b8080601f016020809104026020016040519081016040528093929190818152602001838380828437600092019190915250505090825250604080516020601f8c018190048102820181019092528a815291810191908b908b9081908401838280828437600092019190915250505090825250602080820189905260408083018990528051601f88018390048302810183019091528681526060909201919087908790819084018382808284376000920182905250938552505060016020808501829052426040958601528684526006815292849020855181559285015190830180546001600160a01b0319166001600160a01b0390921691909117905550908201516002820190611c6590826126a1565b5060608201516003820190611c7a90826126a1565b506080820151600482015560a0820151600582015560c08201516006820190611ca390826126a1565b5060e082015160078201805460ff19169115159190911790556101009091015160089182015533600081815260209283526040808220805460018101825590835293909120909201839055905182907f5f25c590b5c7f62ed4186adca32d3118caef07e5020c6cc8268d4136df2cfef890611d23908e908e908c90612760565b60405180910390a39998505050505050505050565b6001600160a01b0381166000908152600a602090815260409182902080548351818402810184019094528084526060939283018282801561189a57602002820191906000526020600020908154815260200190600101908083116118865750505050509050919050565b6001600160a01b03811660009081526008602090815260409182902080548351818402810184019094528084526060939283018282801561189a57602002820191906000526020600020908154815260200190600101908083116118865750505050509050919050565b6002546001600160a01b03163314611e3757604051634aae4fe960e01b815260040160405180910390fd5b600280546001600160a01b0319166001600160a01b0392909216919091179055565b6002546001600160a01b03163314611e8457604051634aae4fe960e01b815260040160405180910390fd5b600380546001600160a01b0319166001600160a01b0392909216919091179055565b3360009081526005602052604090206003015460ff16611ed957604051637b6363af60e01b815260040160405180910390fd5b600084815260066020526040812054859103611f085760405163fa130d1560e01b815260040160405180910390fd5b600085815260066020526040902060018101546001600160a01b03163314611f435760405163d54e394960e01b815260040160405180910390fd5b84600003611f64576040516323de483d60e01b815260040160405180910390fd5b600481018590556005810184905560078101805460ff191684151590811790915560408051878152602081018790529081019190915286907f24833e9f5188ae0f7e72e30363b10145255676df1ab74b5137059e1b8e4cba669060600160405180910390a2505050505050565b60008060208385031215611fe457600080fd5b823567ffffffffffffffff811115611ffb57600080fd5b8301601f8101851361200c57600080fd5b803567ffffffffffffffff81111561202357600080fd5b8560208260051b840101111561203857600080fd5b6020919091019590945092505050565b6000815180845260005b8181101561206e57602081850181015186830182015201612052565b506000602082860101526020601f19601f83011685010191505092915050565b6000602082016020835280845180835260408501915060408160051b86010192506020860160005b8281101561218357603f1987860301845281518051865260208101516120e760208801826001600160a01b03169052565b5060408101516101206040880152612103610120880182612048565b90506060820151878203606089015261211c8282612048565b9150506080820151608088015260a082015160a088015260c082015187820360c089015261214a8282612048565b91505060e082015161216060e089018215159052565b5061010091820151969091019590955260209384019391909101906001016120b6565b50929695505050505050565b60008083601f8401126121a157600080fd5b50813567ffffffffffffffff8111156121b957600080fd5b6020830191508360208285010111156121d157600080fd5b9250929050565b600080600080604085870312156121ee57600080fd5b843567ffffffffffffffff81111561220557600080fd5b6122118782880161218f565b909550935050602085013567ffffffffffffffff81111561223157600080fd5b61223d8782880161218f565b95989497509550505050565b6001600160a01b038116811461225e57600080fd5b50565b6000806040838503121561227457600080fd5b823561227f81612249565b946020939093013593505050565b60006020828403121561229f57600080fd5b5035919050565b600080600080606085870312156122bc57600080fd5b8435935060208501359250604085013567ffffffffffffffff81111561223157600080fd5b6000602082840312156122f357600080fd5b81356122fe81612249565b9392505050565b6001600160a01b038616815260a06020820181905260009061232990830187612048565b828103604084015261233b8187612048565b94151560608401525050608001529392505050565b8981526001600160a01b03891660208201526101206040820181905260009061237b9083018a612048565b828103606084015261238d818a612048565b90508760808401528660a084015282810360c08401526123ad8187612048565b94151560e084015250506101000152979650505050505050565b803580151581146123d757600080fd5b919050565b600080604083850312156123ef57600080fd5b823591506123ff602084016123c7565b90509250929050565b602080825282518282018190526000918401906040840190835b81811015612440578351835260209384019390920191600101612422565b509095945050505050565b634e487b7160e01b600052602160045260246000fd5b6006811061247f57634e487b7160e01b600052602160045260246000fd5b9052565b8a8152602081018a90526001600160a01b038981166040830152881660608201526080810187905260a0810186905261014060c082018190526000906124cb90830187612048565b90506124da60e0830186612461565b610100820193909352610120015298975050505050505050565b60008060008060008060008060a0898b03121561251057600080fd5b883567ffffffffffffffff81111561252757600080fd5b6125338b828c0161218f565b909950975050602089013567ffffffffffffffff81111561255357600080fd5b61255f8b828c0161218f565b9097509550506040890135935060608901359250608089013567ffffffffffffffff81111561258d57600080fd5b6125998b828c0161218f565b999c989b5096995094979396929594505050565b600080600080608085870312156125c357600080fd5b8435935060208501359250604085013591506125e1606086016123c7565b905092959194509250565b634e487b7160e01b600052604160045260246000fd5b634e487b7160e01b600052603260045260246000fd5b600181811c9082168061262c57607f821691505b60208210810361264c57634e487b7160e01b600052602260045260246000fd5b50919050565b601f82111561269c57806000526020600020601f840160051c810160208510156126795750805b601f840160051c820191505b818110156126995760008155600101612685565b50505b505050565b815167ffffffffffffffff8111156126bb576126bb6125ec565b6126cf816126c98454612618565b84612652565b6020601f82116001811461270357600083156126eb5750848201515b600019600385901b1c1916600184901b178455612699565b600084815260208120601f198516915b828110156127335787850151825560209485019460019092019101612713565b50848210156127515786840151600019600387901b60f8161c191681555b50505050600190811b01905550565b604081528260408201528284606083013760006060848301015260006060601f19601f8601168301019050826020830152949350505050565b634e487b7160e01b600052601160045260246000fd5b8082018082111561097457610974612799565b604081016127d08285612461565b6122fe6020830184612461565b808202811582820484141761097457610974612799565b60006001820161280657612806612799565b5060010190565b60006020828403121561281f57600080fd5b5051919050565b818103818111156109745761097461279956fe2b594027304fbeb3d4d0f06c892ea27d2ef521db7646c9466c04a177cf0a6d30a26469706673582212205a75fb96f72ef334ef0f8496d5ff51d09486d493b3ea040014e36c4e2538809c64736f6c634300081e0033",
  "linkReferences": {},
  "deployedLinkReferences": {}
}