{
  "_format": "hh-sol-artifact-1",
  "contractName": "Escrow",
  "sourceName": "contracts/Escrow.sol",
  "abi": [
    {
      "inputs": [],
      "stateMutability": "nonpayable",
      "type": "constructor"
    },
    {
      "inputs": [],
      "name": "Escrow__AlreadyRefunded",
      "type": "error"
    },
    {
      "inputs": [],
      "name": "Escrow__AlreadyReleased",
      "type": "error"
    },
    {
      "inputs": [],
      "name": "Escrow__DisputeAlreadyRaised",
      "type": "error"
    },
    {
      "inputs": [],
      "name": "Escrow__DisputeWindowClosed",
      "type": "error"
    },
    {
      "inputs": [],
      "name": "Escrow__EscrowNotFound",
      "type": "error"
    },
    {
      "inputs": [],
      "name": "Escrow__InvalidAmount",
      "type": "error"
    },
    {
      "inputs": [],
      "name": "Escrow__InvalidState",
      "type": "error"
    },
    {
      "inputs": [],
      "name": "Escrow__NoDispute",
      "type": "error"
    },
    {
      "inputs": [],
      "name": "Escrow__NotAuthorized",
      "type": "error"
    },
    {
      "inputs": [],
      "name": "Escrow__TransferFailed",
      "type": "error"
    },
    {
      "inputs": [],
      "name": "Escrow__ZeroAddress",
      "type": "error"
    },
    {
      "inputs": [],
      "name": "Marketplace__AlreadySet",
      "type": "error"
    },
    {
      "anonymous": false,
      "inputs": [
        {
          "indexed": true,
          "internalType": "address",
          "name": "auction",
          "type": "address"
        }
      ],
      "name": "AuctionContractSet",
      "type": "event"
    },
    {
      "anonymous": false,
      "inputs": [
        {
          "indexed": true,
          "internalType": "uint256",
          "name": "escrowId",
          "type": "uint256"
        },
        {
          "indexed": true,
          "internalType": "address",
          "name": "raisedBy",
          "type": "address"
        },
        {
          "indexed": false,
          "internalType": "uint256",
          "name": "raisedAt",
          "type": "uint256"
        }
      ],
      "name": "DisputeRaised",
      "type": "event"
    },
    {
      "anonymous": false,
      "inputs": [
        {
          "indexed": true,
          "internalType": "uint256",
          "name": "escrowId",
          "type": "uint256"
        },
        {
          "indexed": false,
          "internalType": "enum Escrow.EscrowStatus",
          "name": "resolution",
          "type": "uint8"
        },
        {
          "indexed": true,
          "internalType": "address",
          "name": "resolver",
          "type": "address"
        }
      ],
      "name": "DisputeResolved",
      "type": "event"
    },
    {
      "anonymous": false,
      "inputs": [
        {
          "indexed": true,
          "internalType": "uint256",
          "name": "escrowId",
          "type": "uint256"
        },
        {
          "indexed": true,
          "internalType": "address",
          "name": "buyer",
          "type": "address"
        },
        {
          "indexed": true,
          "internalType": "address",
          "name": "seller",
          "type": "address"
        },
        {
          "indexed": false,
          "internalType": "uint256",
          "name": "amount",
          "type": "uint256"
        },
        {
          "indexed": false,
          "internalType": "uint256",
          "name": "productId",
          "type": "uint256"
        }
      ],
      "name": "EscrowCreated",
      "type": "event"
    },
    {
      "anonymous": false,
      "inputs": [
        {
          "indexed": true,
          "internalType": "address",
          "name": "marketplace",
          "type": "address"
        }
      ],
      "name": "MarketplaceSet",
      "type": "event"
    },
    {
      "anonymous": false,
      "inputs": [
        {
          "indexed": true,
          "internalType": "uint256",
          "name": "escrowId",
          "type": "uint256"
        },
        {
          "indexed": true,
          "internalType": "address",
          "name": "seller",
          "type": "address"
        },
        {
          "indexed": false,
          "internalType": "uint256",
          "name": "amount",
          "type": "uint256"
        }
      ],
      "name": "PaymentReleased",
      "type": "event"
    },
    {
      "anonymous": false,
      "inputs": [
        {
          "indexed": true,
          "internalType": "uint256",
          "name": "escrowId",
          "type": "uint256"
        },
        {
          "indexed": true,
          "internalType": "address",
          "name": "buyer",
          "type": "address"
        },
        {
          "indexed": false,
          "internalType": "uint256",
          "name": "amount",
          "type": "uint256"
        }
      ],
      "name": "RefundIssued",
      "type": "event"
    },
    {
      "anonymous": false,
      "inputs": [
        {
          "indexed": true,
          "internalType": "address",
          "name": "to",
          "type": "address"
        },
        {
          "indexed": false,
          "internalType": "uint256",
          "name": "amount",
          "type": "uint256"
        }
      ],
      "name": "emergencyWithdrawn",
      "type": "event"
    },
    {
      "anonymous": false,
      "inputs": [
        {
          "indexed": true,
          "internalType": "address",
          "name": "owner",
          "type": "address"
        }
      ],
      "name": "ownershipTransfered",
      "type": "event"
    },
    {
      "inputs": [],
      "name": "DISPUTE_WINDOW",
      "outputs": [
        {
          "internalType": "uint256",
          "name": "",
          "type": "uint256"
        }
      ],
      "stateMutability": "view",
      "type": "function"
    },
    {
      "inputs": [],
      "name": "auctionContract",
      "outputs": [
        {
          "internalType": "address",
          "name": "",
          "type": "address"
        }
      ],
      "stateMutability": "view",
      "type": "function"
    },
    {
      "inputs": [
        {
          "internalType": "address",
          "name": "",
          "type": "address"
        },
        {
          "internalType": "uint256",
          "name": "",
          "type": "uint256"
        }
      ],
      "name": "buyerEscrows",
      "outputs": [
        {
          "internalType": "uint256",
          "name": "",
          "type": "uint256"
        }
      ],
      "stateMutability": "view",
      "type": "function"
    },
    {
      "inputs": [
        {
          "internalType": "address",
          "name": "_buyer",
          "type": "address"
        },
        {
          "internalType": "address",
          "name": "_seller",
          "type": "address"
        },
        {
          "internalType": "uint256",
          "name": "_productId",
          "type": "uint256"
        },
        {
          "internalType": "uint256",
          "name": "_orderId",
          "type": "uint256"
        }
      ],
      "name": "createEscrow",
      "outputs": [
        {
          "internalType": "uint256",
          "name": "",
          "type": "uint256"
        }
      ],
      "stateMutability": "payable",
      "type": "function"
    },
    {
      "inputs": [
        {
          "internalType": "address payable",
          "name": "_to",
          "type": "address"
        },
        {
          "internalType": "uint256",
          "name": "_amount",
          "type": "uint256"
        }
      ],
      "name": "emergencyWithdraw",
      "outputs": [],
      "stateMutability": "nonpayable",
      "type": "function"
    },
    {
      "inputs": [],
      "name": "escrowCounter",
      "outputs": [
        {
          "internalType": "uint256",
          "name": "",
          "type": "uint256"
        }
      ],
      "stateMutability": "view",
      "type": "function"
    },
    {
      "inputs": [
        {
          "internalType": "uint256",
          "name": "",
          "type": "uint256"
        }
      ],
      "name": "escrows",
      "outputs": [
        {
          "internalType": "uint256",
          "name": "id",
          "type": "uint256"
        },
        {
          "internalType": "uint256",
          "name": "orderId",
          "type": "uint256"
        },
        {
          "internalType": "address",
          "name": "buyer",
          "type": "address"
        },
        {
          "internalType": "address",
          "name": "seller",
          "type": "address"
        },
        {
          "internalType": "uint256",
          "name": "amount",
          "type": "uint256"
        },
        {
          "internalType": "uint256",
          "name": "productId",
          "type": "uint256"
        },
        {
          "internalType": "enum Escrow.EscrowStatus",
          "name": "status",
          "type": "uint8"
        },
        {
          "internalType": "uint256",
          "name": "createdAt",
          "type": "uint256"
        },
        {
          "internalType": "uint256",
          "name": "disputeRaisedAt",
          "type": "uint256"
        },
        {
          "internalType": "address",
          "name": "resolver",
          "type": "address"
        }
      ],
      "stateMutability": "view",
      "type": "function"
    },
    {
      "inputs": [
        {
          "internalType": "address",
          "name": "_buyer",
          "type": "address"
        }
      ],
      "name": "getBuyerEscrows",
      "outputs": [
        {
          "internalType": "uint256[]",
          "name": "",
          "type": "uint256[]"
        }
      ],
      "stateMutability": "view",
      "type": "function"
    },
    {
      "inputs": [
        {
          "internalType": "uint256",
          "name": "_escrowId",
          "type": "uint256"
        }
      ],
      "name": "getDisputeTimeRemaining",
      "outputs": [
        {
          "internalType": "uint256",
          "name": "",
          "type": "uint256"
        }
      ],
      "stateMutability": "view",
      "type": "function"
    },
    {
      "inputs": [
        {
          "internalType": "uint256",
          "name": "_escrowId",
          "type": "uint256"
        }
      ],
      "name": "getEscrow",
      "outputs": [
        {
          "components": [
            {
              "internalType": "uint256",
              "name": "id",
              "type": "uint256"
            },
            {
              "internalType": "uint256",
              "name": "orderId",
              "type": "uint256"
            },
            {
              "internalType": "address",
              "name": "buyer",
              "type": "address"
            },
            {
              "internalType": "address",
              "name": "seller",
              "type": "address"
            },
            {
              "internalType": "uint256",
              "name": "amount",
              "type": "uint256"
            },
            {
              "internalType": "uint256",
              "name": "productId",
              "type": "uint256"
            },
            {
              "internalType": "enum Escrow.EscrowStatus",
              "name": "status",
              "type": "uint8"
            },
            {
              "internalType": "uint256",
              "name": "createdAt",
              "type": "uint256"
            },
            {
              "internalType": "uint256",
              "name": "disputeRaisedAt",
              "type": "uint256"
            },
            {
              "internalType": "address",
              "name": "resolver",
              "type": "address"
            }
          ],
          "internalType": "struct Escrow.EscrowData",
          "name": "",
          "type": "tuple"
        }
      ],
      "stateMutability": "view",
      "type": "function"
    },
    {
      "inputs": [
        {
          "internalType": "address",
          "name": "_seller",
          "type": "address"
        }
      ],
      "name": "getSellerEscrows",
      "outputs": [
        {
          "internalType": "uint256[]",
          "name": "",
          "type": "uint256[]"
        }
      ],
      "stateMutability": "view",
      "type": "function"
    },
    {
      "inputs": [
        {
          "internalType": "uint256",
          "name": "_escrowId",
          "type": "uint256"
        }
      ],
      "name": "isDisputeWindowOpen",
      "outputs": [
        {
          "internalType": "bool",
          "name": "",
          "type": "bool"
        }
      ],
      "stateMutability": "view",
      "type": "function"
    },
    {
      "inputs": [],
      "name": "marketplace",
      "outputs": [
        {
          "internalType": "address",
          "name": "",
          "type": "address"
        }
      ],
      "stateMutability": "view",
      "type": "function"
    },
    {
      "inputs": [],
      "name": "owner",
      "outputs": [
        {
          "internalType": "address",
          "name": "",
          "type": "address"
        }
      ],
      "stateMutability": "view",
      "type": "function"
    },
    {
      "inputs": [
        {
          "internalType": "uint256",
          "name": "_escrowId",
          "type": "uint256"
        }
      ],
      "name": "raiseDispute",
      "outputs": [],
      "stateMutability": "nonpayable",
      "type": "function"
    },
    {
      "inputs": [
        {
          "internalType": "uint256",
          "name": "_escrowId",
          "type": "uint256"
        }
      ],
      "name": "refund",
      "outputs": [],
      "stateMutability": "nonpayable",
      "type": "function"
    },
    {
      "inputs": [
        {
          "internalType": "uint256",
          "name": "_escrowId",
          "type": "uint256"
        }
      ],
      "name": "releasePayment",
      "outputs": [],
      "stateMutability": "nonpayable",
      "type": "function"
    },
    {
      "inputs": [
        {
          "internalType": "uint256",
          "name": "_escrowId",
          "type": "uint256"
        },
        {
          "internalType": "bool",
          "name": "_releaseToSeller",
          "type": "bool"
        }
      ],
      "name": "resolveDispute",
      "outputs": [],
      "stateMutability": "nonpayable",
      "type": "function"
    },
    {
      "inputs": [
        {
          "internalType": "address",
          "name": "",
          "type": "address"
        },
        {
          "internalType": "uint256",
          "name": "",
          "type": "uint256"
        }
      ],
      "name": "sellerEscrows",
      "outputs": [
        {
          "internalType": "uint256",
          "name": "",
          "type": "uint256"
        }
      ],
      "stateMutability": "view",
      "type": "function"
    },
    {
      "inputs": [
        {
          "internalType": "address",
          "name": "_auction",
          "type": "address"
        }
      ],
      "name": "setAuctionContract",
      "outputs": [],
      "stateMutability": "nonpayable",
      "type": "function"
    },
    {
      "inputs": [
        {
          "internalType": "address",
          "name": "_marketplace",
          "type": "address"
        }
      ],
      "name": "setMarketplace",
      "outputs": [],
      "stateMutability": "nonpayable",
      "type": "function"
    },
    {
      "inputs": [
        {
          "internalType": "address",
          "name": "_newOwner",
          "type": "address"
        }
      ],
      "name": "transferOwnership",
      "outputs": [],
      "stateMutability": "nonpayable",
      "type": "function"
    },
    {
      "stateMutability": "payable",
      "type": "receive"
    }
  ],
  "bytecode": "0x6080604052348015600f57600080fd5b50600180546001600160a01b031916331790556117d8806100316000396000f3fe6080604052600436106101395760003560e01c806388685cd9116100ab578063abc8c7af1161006f578063abc8c7af14610461578063b3f197d714610481578063c7ceafea146104a1578063ccbae5f6146104b7578063f2fde38b146104ca578063f585dc57146104ea57600080fd5b806388685cd9146103c15780638da5cb5b146103e157806395ccea6714610401578063a5c1674e14610421578063a8880fdc1461044157600080fd5b80632ac08bd3116100fd5780632ac08bd3146102d757806334b25ee21461030457806346e127a41461032457806370c951a51461035457806373ad6c2d146103745780637d19e5961461039457600080fd5b8063012f52ee1461018f578063023924c71461022f5780630ab8afac146102515780631b5924cf14610289578063278ecde1146102b757600080fd5b3661018a5760405162461bcd60e51b815260206004820152601b60248201527f446972656374206465706f73697473206e6f7420616c6c6f7765640000000000604482015260640160405180910390fd5b600080fd5b34801561019b57600080fd5b506102106101aa3660046114a8565b60046020819052600091825260409091208054600182015460028301546003840154948401546005850154600686015460078701546008880154600990980154969895976001600160a01b0395861697968616969495939460ff9093169391929091168a565b6040516102269a999897969594939291906114f9565b60405180910390f35b34801561023b57600080fd5b5061024f61024a36600461157e565b610501565b005b34801561025d57600080fd5b50600354610271906001600160a01b031681565b6040516001600160a01b039091168152602001610226565b34801561029557600080fd5b506102a96102a43660046115a2565b61059d565b604051908152602001610226565b3480156102c357600080fd5b5061024f6102d23660046114a8565b6105ce565b3480156102e357600080fd5b506102f76102f236600461157e565b61077d565b60405161022691906115ce565b34801561031057600080fd5b5061024f61031f366004611611565b6107e9565b34801561033057600080fd5b5061034461033f3660046114a8565b610a5f565b6040519015158152602001610226565b34801561036057600080fd5b506102a961036f3660046115a2565b610abd565b34801561038057600080fd5b5061024f61038f36600461157e565b610ad9565b3480156103a057600080fd5b506103b46103af3660046114a8565b610b75565b6040516102269190611646565b3480156103cd57600080fd5b5061024f6103dc3660046114a8565b610c41565b3480156103ed57600080fd5b50600154610271906001600160a01b031681565b34801561040d57600080fd5b5061024f61041c3660046115a2565b610dce565b34801561042d57600080fd5b5061024f61043c3660046114a8565b610eb5565b34801561044d57600080fd5b506102a961045c3660046114a8565b61101c565b34801561046d57600080fd5b50600254610271906001600160a01b031681565b34801561048d57600080fd5b506102f761049c36600461157e565b611097565b3480156104ad57600080fd5b506102a960005481565b6102a96104c53660046116f3565b611101565b3480156104d657600080fd5b5061024f6104e536600461157e565b61138d565b3480156104f657600080fd5b506102a962093a8081565b6001546001600160a01b0316331461052c5760405163337b5acb60e01b815260040160405180910390fd5b6001600160a01b03811661055357604051637d8e84fb60e11b815260040160405180910390fd5b600380546001600160a01b0319166001600160a01b0383169081179091556040517fb1f763a7877cd1d63924dcf40169ba0e1bba5425ba9103e67259e15ec11e121890600090a250565b600660205281600052604060002081815481106105b957600080fd5b90600052602060002001600091509150505481565b6000818152600460205260408120548291036105fd57604051633b363da360e01b815260040160405180910390fd5b600082815260046020526040902060038101546001600160a01b0316331480159061063357506002546001600160a01b03163314155b801561064a57506001546001600160a01b03163314155b156106685760405163337b5acb60e01b815260040160405180910390fd5b6000600682015460ff166004811115610683576106836114c1565b146106a15760405163231465f760e11b815260040160405180910390fd5b60068101805460ff1916600290811790915581015460048201546040516000926001600160a01b031691908381818185875af1925050503d8060008114610704576040519150601f19603f3d011682016040523d82523d6000602084013e610709565b606091505b505090508061072b57604051630fbb62e760e21b815260040160405180910390fd5b600282015460048301546040519081526001600160a01b039091169085907f7a482fdeb6bc9a1376f597068a214a7a39472bb2eff1b8cad21ba04f49ddca1b906020015b60405180910390a350505050565b6001600160a01b0381166000908152600660209081526040918290208054835181840281018401909452808452606093928301828280156107dd57602002820191906000526020600020905b8154815260200190600101908083116107c9575b50505050509050919050565b6001546001600160a01b031633146108145760405163337b5acb60e01b815260040160405180910390fd5b60008281526004602052604081205483910361084357604051633b363da360e01b815260040160405180910390fd5b60008381526004602052604090206003600682015460ff16600481111561086c5761086c6114c1565b1461088a57604051633ac49a9360e01b815260040160405180910390fd5b60068101805460ff19166004179055600981018054336001600160a01b0319909116179055821561093557600381015460048201546040516000926001600160a01b031691908381818185875af1925050503d8060008114610908576040519150601f19603f3d011682016040523d82523d6000602084013e61090d565b606091505b505090508061092f57604051630fbb62e760e21b815260040160405180910390fd5b506109b1565b600281015460048201546040516000926001600160a01b031691908381818185875af1925050503d8060008114610988576040519150601f19603f3d011682016040523d82523d6000602084013e61098d565b606091505b50509050806109af57604051630fbb62e760e21b815260040160405180910390fd5b505b600254604051639ea9d43960e01b81526004810186905284151560248201526001600160a01b0390911690639ea9d43990604401600060405180830381600087803b1580156109ff57600080fd5b505af1158015610a13573d6000803e3d6000fd5b50505050336001600160a01b0316847fd479d35c2c3aee3d59f9972a1214f8effa0c54c4f8ff4dcf020913c0a5e27c6285610a4f576002610a52565b60015b60405161076f9190611739565b60008181526004602052604081205482908203610a8f57604051633b363da360e01b815260040160405180910390fd5b60008381526004602052604090206007810154610ab09062093a8090611763565b4211159250505b50919050565b600560205281600052604060002081815481106105b957600080fd5b6001546001600160a01b03163314610b045760405163337b5acb60e01b815260040160405180910390fd5b6001600160a01b038116610b2b57604051637d8e84fb60e11b815260040160405180910390fd5b600280546001600160a01b0319166001600160a01b0383169081179091556040517f78fd71746fd8724dd16b5a93e765a076614159ebdc73d996a6a8884f358898e590600090a250565b610b7d611429565b6000828152600460208181526040928390208351610140810185528154815260018201549281019290925260028101546001600160a01b039081169483019490945260038101549093166060820152828201546080820152600583015460a0820152600683015490929160c084019160ff1690811115610bff57610bff6114c1565b6004811115610c1057610c106114c1565b815260078201546020820152600882015460408201526009909101546001600160a01b031660609091015292915050565b600081815260046020526040812054829103610c7057604051633b363da360e01b815260040160405180910390fd5b600082815260046020526040902060028101546001600160a01b03163314801590610ca657506002546001600160a01b03163314155b15610cc45760405163337b5acb60e01b815260040160405180910390fd5b6000600682015460ff166004811115610cdf57610cdf6114c1565b14610cfd5760405163231465f760e11b815260040160405180910390fd5b60068101805460ff19166001179055600381015460048201546040516000926001600160a01b031691908381818185875af1925050503d8060008114610d5f576040519150601f19603f3d011682016040523d82523d6000602084013e610d64565b606091505b5050905080610d8657604051630fbb62e760e21b815260040160405180910390fd5b600382015460048301546040519081526001600160a01b039091169085907f21d71db5be59bb9fa133895586b7404307dd33fb93b16db09dc6f1d9d7d231b09060200161076f565b6001546001600160a01b03163314610df95760405163337b5acb60e01b815260040160405180910390fd5b6000826001600160a01b03168260405160006040518083038185875af1925050503d8060008114610e46576040519150601f19603f3d011682016040523d82523d6000602084013e610e4b565b606091505b5050905080610e6d57604051630fbb62e760e21b815260040160405180910390fd5b826001600160a01b03167fbd481ae5937060ff154662b3d38b69314398f6b56b9bef7dbbb2e46fb303a47d83604051610ea891815260200190565b60405180910390a2505050565b600081815260046020526040812054829103610ee457604051633b363da360e01b815260040160405180910390fd5b600082815260046020526040902060028101546001600160a01b03163314801590610f1c575060038101546001600160a01b03163314155b15610f3a5760405163337b5acb60e01b815260040160405180910390fd5b6000600682015460ff166004811115610f5557610f556114c1565b14610f735760405163231465f760e11b815260040160405180910390fd5b62093a808160070154610f869190611763565b421115610fa657604051637616431160e11b815260040160405180910390fd5b600881015415610fc9576040516398ebc90360e01b815260040160405180910390fd5b60068101805460ff191660031790554260088201819055604051908152339084907fe0e58e9cc5ed7ef092d3e14cff6136d23ebf75a16cf3c8257ef8804811d8b0f39060200160405180910390a3505050565b6000818152600460205260408120548290820361104c57604051633b363da360e01b815260040160405180910390fd5b600083815260046020526040812060078101549091906110709062093a8090611763565b905080421061108457600093505050610ab7565b61108e4282611776565b95945050505050565b6001600160a01b0381166000908152600560209081526040918290208054835181840281018401909452808452606093928301828280156107dd57602002820191906000526020600020908154815260200190600101908083116107c95750505050509050919050565b6002546000906001600160a01b0316331480159061112a57506003546001600160a01b03163314155b156111485760405163337b5acb60e01b815260040160405180910390fd5b6001600160a01b038516158061116557506001600160a01b038416155b1561118357604051637d8e84fb60e11b815260040160405180910390fd5b346000036111a4576040516315a4487360e31b815260040160405180910390fd5b6000805490806111b383611789565b9190505550600080549050604051806101400160405280828152602001848152602001876001600160a01b03168152602001866001600160a01b0316815260200134815260200185815260200160006004811115611213576112136114c1565b8152426020808301919091526000604080840182905260609384018290528582526004808452918190208551815592850151600180850191909155908501516002840180546001600160a01b03199081166001600160a01b03938416179091559486015160038501805490961691161790935560808401518282015560a0840151600583015560c084015160068301805493949193909260ff19909116919084908111156112c3576112c36114c1565b021790555060e08201516007820155610100820151600882015561012090910151600990910180546001600160a01b0319166001600160a01b03928316179055868116600081815260056020908152604080832080546001818101835591855283852001879055948a1680845260068352818420805496870181558452928290209094018590558351348152908101889052909284917f59e4b8728799382406714f1c57de5c893d2772f9a8bf9950c5afe4397e648654910160405180910390a495945050505050565b6001546001600160a01b031633146113b85760405163337b5acb60e01b815260040160405180910390fd5b6001600160a01b0381166113df57604051637d8e84fb60e11b815260040160405180910390fd5b600180546001600160a01b0319166001600160a01b0383169081179091556040517f483c69a8598957738380929072fe06ab60b4ad2b8038421a1bd54126cdbfa90190600090a250565b604051806101400160405280600081526020016000815260200160006001600160a01b0316815260200160006001600160a01b03168152602001600081526020016000815260200160006004811115611484576114846114c1565b8152602001600081526020016000815260200160006001600160a01b031681525090565b6000602082840312156114ba57600080fd5b5035919050565b634e487b7160e01b600052602160045260246000fd5b600581106114f557634e487b7160e01b600052602160045260246000fd5b9052565b8a8152602081018a90526001600160a01b038981166040830152881660608201526080810187905260a08101869052610140810161153a60c08301876114d7565b60e08201949094526101008101929092526001600160a01b031661012090910152979650505050505050565b6001600160a01b038116811461157b57600080fd5b50565b60006020828403121561159057600080fd5b813561159b81611566565b9392505050565b600080604083850312156115b557600080fd5b82356115c081611566565b946020939093013593505050565b602080825282518282018190526000918401906040840190835b818110156116065783518352602093840193909201916001016115e8565b509095945050505050565b6000806040838503121561162457600080fd5b823591506020830135801515811461163b57600080fd5b809150509250929050565b6000610140820190508251825260208301516020830152604083015161167760408401826001600160a01b03169052565b50606083015161169260608401826001600160a01b03169052565b506080830151608083015260a083015160a083015260c08301516116b960c08401826114d7565b5060e083015160e08301526101008301516101008301526101208301516116ec6101208401826001600160a01b03169052565b5092915050565b6000806000806080858703121561170957600080fd5b843561171481611566565b9350602085013561172481611566565b93969395505050506040820135916060013590565b6020810161174782846114d7565b92915050565b634e487b7160e01b600052601160045260246000fd5b808201808211156117475761174761174d565b818103818111156117475761174761174d565b60006001820161179b5761179b61174d565b506001019056fea2646970667358221220cce5048e3f415884cd161deb1b223954530079fb3298560fd21c61825e32ff8264736f6c634300081e0033",
  "linkReferences": {},
  "deployedLinkReferences": {}
}